:020000040800F2
:1000000058070020290200083102000833020008C6
:10001000350200083702000839020008000000001D
:100020000000000000000000000000003B0200088B
:100030003D020008000000003F020008E10A00083D
:10004000430200084302000843020008430200087C
:10005000430200084302000843020008430200086C
:10006000430200084302000843020008430200085C
:10007000430200084302000843020008430200084C
:10008000430200084302000843020008430200083C
:10009000430200084302000843020008430200082C
:1000A000430200084302000843020008430200081C
:1000B000430200084302000843020008430200080C
:1000C00043020008430200084302000843020008FC
:1000D00043020008430200084302000843020008EC
:1000E00043020008430200084302000843020008DC
:1000F00043020008430200084302000843020008CC
:1001000043020008430200084302000843020008BB
:1001100043020008430200084302000843020008AB
:10012000430200084302000843020008430200089B
:10013000430200084302000843020008430200088B
:10014000430200084302000843020008430200087B
:10015000430200084302000843020008430200086B
:10016000430200084302000843020008430200085B
:100170004302000843020008430200080000000098
:10018000430200084302000800F002F800F03CF8C7
:100190000AA090E8000C82448344AAF10107DA45E2
:1001A00001D100F031F8AFF2090EBAE80F0013F0F8
:1001B000010F18BFFB1A43F001031847581700003E
:1001C00078170000103A24BF78C878C1FAD85207CF
:1001D00024BF30C830C144BF04680C6070470000C1
:1001E0000023002400250026103A28BF78C1FBD840
:1001F000520728BF30C148BF0B6070471FB500F0E1
:1002000071FF1FBD10B510BD00F0F6F81146FFF7E5
:10021000F5FF00F08FFE00F014F903B4FFF7F2FFD2
:1002200003BC00F017F9000009488047094800475F
:10023000FEE7FEE7FEE7FEE7FEE7FEE7FEE7FEE796
:10024000FEE7FEE704480549054A064B70470000F3
:100250008D0B000889010008580100205807002074
:10026000580300205803002053EA020C00F0698074
:100270002DE9F04B4FF00006002B1FBFB3FA83F5BA
:1002800003FA05F424FA05F65E4012BF1643B2FAEB
:1002900082F502FA05F4C5F120051EBF22FA05FC1D
:1002A00044EA0C04203556EA044C4FEA144418BFC3
:1002B000641C4FF000084FF00009904271EB030CF2
:1002C00039D3002919BFB1FA81F701FA07F6B0FA5C
:1002D00080F700FA07F6C7F120071EBF20FA07FCD7
:1002E00046EA0C062037B6FBF4FCA7EB0507103FE7
:1002F00007F01F0BCBF120062CFA06F60CFA0BFBCD
:1003000044BFB3460026202FA4BF5E464FF0000B2B
:100310005BEA060C08BF4FF0010B19EB0B0948EB29
:100320000608ABFB027C06FB02CC0BFB03CCC01B1C
:1003300071EB0C01C1E70B46024641464846BDE859
:10034000F08B13B5084318BF4FF0FF300146AFF3F1
:100350000080BDE81C4070474FF000020429C0F047
:10036000128010F0030C00F01B80CCF1040CBCF1E7
:10037000020F18BF00F8012BA8BF20F8022BA1EB39
:100380000C0100F00DB85FEAC17C24BF00F8012B1E
:1003900000F8012B48BF00F8012B70474FF0000216
:1003A00000B5134694469646203922BFA0E80C506B
:1003B000A0E80C50B1F12001BFF4F7AF090728BF46
:1003C000A0E80C5048BF0CC05DF804EB890028BFC2
:1003D00040F8042B08BF704748BF20F8022B11F0EB
:1003E000804F18BF00F8012B704770477047704767
:1003F00000487047500000207546FFF7F9FFAE46F1
:1004000005006946534620F00700854618B020B520
:10041000FFF718FFBDE820404FF000064FF000073F
:100420004FF000084FF0000BAC46ACE8C009ACE858
:10043000C009ACE8C009ACE8C00921F007018D464D
:10044000704710B50446AFF300802046BDE8104069
:10045000FFF7E3BE01491820ABBEFEE7260002000D
:100460007047000072B600BFFEE70000B0B504465A
:1004700000F010F8054640F24400C2F20000007897
:10048000611C18BF044400BF00F004F8401BA042E8
:10049000FAD3B0BD40F25410C2F2000000687047B9
:1004A00040F2440040F25411C2F20000C2F20001D6
:1004B00000780A68104408607047000080B543F671
:1004C0000040C4F20200016841F40071016001685B
:1004D00041F480610160032000F042F80F2000F039
:1004E00005F800F02BF8002080BD0000B0B540F208
:1004F0004402C2F2000240F200011278C2F200018E
:100500004FF47A730968B3FBF2F20446B1FBF2F1DF
:10051000084600F0AFFA0F2C4FF001050CD858B97F
:100520004FF0FF3021460022002500F009F840F28C
:100530004800C2F2000004602846B0BD70470000C9
:1005400070B514460D46064600F02EFB294622469D
:1005500000F098FA0146304600F02EFB70BD000016
:1005600080B500F03BFB80BD2DE9F041002800F094
:100570008B8043F60808C4F202080446D8F8F80352
:100580000D4600F00F00884207D288F8F853D8F8DB
:10059000F80300F00F00A84276D12068810717D534
:1005A000410705D5D8F8001041F4E051C8F8001013
:1005B000010705D5D8F8001041F46041C8F80010D3
:1005C000D8F80010A26821F0F0011143C8F800101B
:1005D000C0073FD1D8F8F80300F00F00A84207D9B0
:1005E00088F8F853D8F8F80300F00F00A8424BD170
:1005F0002068410707D5D8F80010E26821F4E051DF
:100600001143C8F80010000708D5D8F80000216988
:1006100020F4604040EAC100C8F8000000F05AF839
:10062000D8F8001041F2FE02C1F30311C0F6000237
:10063000515C40F2000220FA01F140F24800C2F29F
:1006400000000068C2F200021160FFF74FFF0020B7
:10065000BDE8F0816068811E022907D258F8081CA5
:1006600089015CBF0120BDE8F08110E0012807D1BD
:1006700058F8081C89035CBF0120BDE8F08106E042
:1006800058F8081C890702D40120BDE8F081D8F889
:10069000001021F003010843C8F80000FFF7FAFE3C
:1006A000064641F2883700BFD8F80000616800F0C4
:1006B0000C00B0EB810F8DD0FFF7ECFE801BB84231
:1006C000F2D90320BDE8F08140F20000C2F2000040
:1006D0000068704710B543F60404C4F20204606871
:1006E00000F00C0008280AD0042819BF42F200408C
:1006F000C0F2F40047F64000C0F27D1010BD206843
:1007000021682368490247F64001C0F27D1100F0DC
:100710003F02C3F388105CBF42F20041C0F2F40113
:10072000A1FB00010023FFF79FFD21680222C1F316
:10073000014102EB4101B0FBF1F010BD2DE9F041A8
:1007400082B0002800F098800446007843F6000646
:10075000C007C4F2020643D0B06800F00C000428C1
:1007600005D1306880033BD56068C8BB84E0B068C1
:1007700000F00C00082802D170684002F1D46568CE
:10078000B5F5A02F0AD0B5F5803F0BD0306820F426
:1007900080303060306820F4802006E0306840F41B
:1007A00080203060306840F480303060FFF772FEA7
:1007B000002D054611D000BF3068800310D4FFF72C
:1007C00069FE401B6428F7D918E100BFFFF762FEFD
:1007D000401B64284FF003004BD830688003F5D4E9
:1007E0002078800719D5B06810F00C0F08D0B068D9
:1007F00000F00C00082840F08080706840027CD433
:100800003068800702D5E068012835D13068216959
:1008100020F0F80040EAC1003060207800072FD4B3
:100820002078400743D4A56915B3B06800F00C00E8
:10083000082840F09580012D1ED07068E16900F411
:1008400080028A4218D1216A00F03F028A4213D105
:1008500047F6C071626A014091420DD1A16A00F46D
:1008600040328A4208D1E16A00F07060884203D1C8
:10087000002002B0BDE8F081012002B0BDE8F081A7
:100880006069002840F20000C4F2472057D00121DF
:10089000C0F8801EFFF7FEFD054600BF706F8007A1
:1008A000BED4FFF7F7FD401B0228F7D9A6E0306C55
:1008B00010F080580AD100200190306C40F0805038
:1008C0003064306C00F080500190019847F20007CE
:1008D000C4F200073868C00524D4386840F480703A
:1008E0003860FFF7D7FD05463868C0051AD4FFF712
:1008F000D1FD401B0228F7D980E0E068002851D0E4
:100900000020C4F2472001210160FFF7C3FD054626
:10091000306880073FF57AAFFFF7BCFD401B022827
:10092000F6D96BE0A568052D50D0012D52D0306F5F
:1009300020F001003067306F20F004004DE000210E
:10094000C0F8801EFFF7A6FD054600BF706F800748
:100950007FF566AFFFF79EFD401B0228F6D94DE0FC
:100960000027C4F2472700203866FFF793FD022DC9
:1009700005460BD13068800158D5FFF78BFD401B31
:1009800002284FF00300F5D973E700BF30688001FB
:100990007FF56EAFFFF77EFD401B02284FF003008E
:1009A000F4D966E70020C4F2472000210160FFF778
:1009B00071FD0546306880077FF52FAFFFF76AFDB0
:1009C000401B02284FF00300F4D952E7306F40F08B
:1009D00004003067306F40F001003067FFF75AFDC8
:1009E000002D054641F2883714D000BF306F8007D4
:1009F00013D4FFF74FFD401BB842F7D9032002B0D4
:100A0000BDE8F081FFF746FD401BB8424FF0030000
:100A10003FF62FAF306F8007F4D4B8F1000F7FF4AA
:100A200002AF306C20F080503064FCE604F11C050D
:100A30002FCD08430021CFF6FF7140EA821001EB71
:100A4000C3316FF30F0140EA056008437060012075
:100A50003866FFF71FFD0446306880013FF508AF98
:100A6000FFF718FD001B02284FF00300F4D900E740
:100A70007047000080B500F01BF880BD80B5FFF71F
:100A8000F7FF80BD00F0070080F00703042B28BFAC
:100A900004234FF0FF3C03380CFA03F338BF002067
:100AA000994381400CFA00F022EA000008437047A5
:100AB000B0B501380024B4EB106F1CBF0120B0BDED
:100AC0004EF21005CEF2000568604FF0FF300F21A6
:100AD00000F072F80720AC6028602046B0BD00002E
:100AE00080B5FFF7DDFCFFF7C9FF80BD70B592B0A0
:100AF00006AC20463021FFF751FC002543F64000AC
:100B00000595CDE90355CDE901550095C4F20200E4
:100B10000168022641F080510160006800F08050B9
:100B20000090009847F200000095C4F200000168B0
:100B300041F480410160006800F48040009000981A
:100B40000120099010200A9008200E90A820CDE9DD
:100B50000F060420119020460696CDE90C65FFF79C
:100B6000EDFD88B90F20CDE901064FF4A0500490A7
:100B70004FF48050059001A805210395FFF7F4FC80
:100B8000002804BF12B070BDFFF76CFC4EF6885011
:100B9000CEF20000016841F4700101604FF0006185
:100BA00040F8801C704700004EF60C50CEF200005A
:100BB0000068C0F3022070474EF6145300F00F0295
:100BC000CEF2000309011A4400F16043B0F1FF3F87
:100BD000C8BF03F564421170704700004EF60C5117
:100BE000CEF200010A684FF6FF031A4060F30A22B2
:100BF00042F0806040F0FD7008607047B0B5054677
:100C0000049829702873C90018461C46AA60FFF78B
:100C1000A3FB6C60B0BD00002DE9F04F88B090F9E7
:100C20000C704468D0F8089090F900A003F001001F
:100C3000C7F10F0B07F111064FEA530E0390101F77
:100C400007968DE805400AE0DDF808E009F10C0997
:100C5000276063600834BAF1010A11466DD0D9F8F3
:100C60000080D9F80400D9F808C027686368BEF18D
:100C7000000F45D0CDE904A9DDF800900439F24613
:100C8000069400BF51F8042F5D4628FB02FBBAF121
:100C9000010A4FEAEB7EC0FBC7BECCFBC3BE2BFAFA
:100CA00005F4AB460EFA06F545EA040528FB12F4F6
:100CB00005F30F05C2EA07474FEAE476C5EA0343A6
:100CC000C0FBC746079FCCFBC34624FA0BF306FACA
:100CD00007F743EA070303F30F03079EC5EA034739
:100CE00049F8047F4FEA3247C3EA0543CAD109F104
:100CF000040E019A069CDDE904A9043101E000BF5D
:100D00009646039D002D9FD00D882EB228FB06F637
:100D1000F117C0FBC761CCFBC36126FA0BF0079E3D
:100D200045EA074701FA06F63043079E00F30F0035
:100D3000C0EA0343AEF8000086E708B0BDE8F08FD4
:100D4000B0B51C46CB070CD1054604982980084451
:100D500041002046AA60FFF7FFFA002040B26C6015
:100D6000B0BDFF2040B2B0BD2DE9F04F84B0078880
:100D70000E46D0F804903946791E009702914946F4
:100D8000CDF80490CBB3D0F808B0DDE9019009EBC1
:100D9000400100984FEA500A09E000BF002404F324
:100DA0000F0022F8020B013B09F1020925D036F8A9
:100DB000024BBAF1000F21F8024BEFD003913146FC
:100DC00000240026002700BF0BEB840039F92480A3
:100DD0003BF924E009EB840CBCF90250B0F90200A5
:100DE000CEFB88670134A245C0FB8567ECD1F00BD0
:100DF0000E46039940EA4744D1E7029868B100984B
:100E0000019940420239A9F1020200BF32F8023FC3
:100E10000130471C21F8023FF8D104B0BDE8F08F43
:100E2000002A08BF70479FED0A0A031F881E00BFF3
:100E300093ED011A043321EE001ABDEEC11A11EE32
:100E4000101A01F30F0120F8021F013AF0D1704788
:100E5000000000479FED201A9FED202A20EE010A96
:100E6000BDEEC01A11EE100AB5EE400AF1EE10FA0E
:100E7000B8BF013801EE100AB8EEC11A30EE410ACF
:100E800020EE020ABDEEC01A9FED152A11EE100ADF
:100E9000002130EE021AB1EB502F41F210111CBFAD
:100EA0000020B0EE410AC0F6000101EE100A01EB8D
:100EB0008001B8EE411A30EE410A91ED001A91ED31
:100EC000012AB7EE003A33EE403A23EE011A20EE43
:100ED000020A31EE000A704783F9223E0000004406
:100EE000000000C480B582B0014640F2B800C2F2F2
:100EF00000000DF106020123FFF736FFBDF90600E1
:100F000002B080BD80B582B040F2B80040F2040269
:100F100040F2C4034FF0010CC2F20000C2F2000222
:100F2000C2F200032021CDF800C0FFF709FF02B094
:100F300080BD0000FFF7C2FAFFF7D8FDFFF7C4FB42
:100F400040F2B40140F22C18C2F20001C2F20008D3
:100F5000086040460A214FF47A7200F04DF840F2E2
:100F60000819C2F20009484632214FF47A7200F0A3
:100F700043F8FFF7C7FF40F250174AF6AB2A40F29A
:100F8000061540F2B00640F2B204C2F20007C2F603
:100F9000AA2AC2F20005C2F20006C2F2000400BF93
:100FA000404600F019F881B200EBD13000B24008A1
:100FB0003880484600F010F850FB0AF0398800EB02
:100FC000D0702880084430803046FFF78BFF2080A7
:100FD0000120FFF74BFAE3E780B582B00021ADF8BE
:100FE00006100DF1060101AA0123FFF715FEBDF958
:100FF000040002B080BD0000F0B581B02DED048B7F
:1010000088B000EE101A9FED341AB8EEC08A28EEB0
:10101000010A01EE102AB8EEC19A80EE090A0446D0
:1010200000200490FFF716FF9FED2C1A04A828EE6D
:10103000011A81EE091A8DED050A051DB0EE410A6F
:10104000FFF708FF9FED261A8DED060A28EE011A1C
:1010500081EE091AB0EE410AFFF7FCFE9DED051A7C
:101060009DED062A20EE014A82EE013A22EE022A86
:1010700034EE422A21EE011A82EE011A8DED070AA2
:10108000B6EE000A04F1180103A8012204F11006CB
:10109000012723EE002A8DED032A21EE000A8DEDB3
:1010A000020AFFF7BDFE04F11A0102A80122FFF7B0
:1010B000B7FE04F11C032046012132460097FFF7DA
:1010C0009DFD04F1220128460122FFF7A9FE08B088
:1010D000BDEC048B01B0F0BDDB0FC940DB0F494113
:1010E000E4CB9641F1EE100A4FF6FF71C0F2C03129
:1010F00020EA010040F04070E1EE100A7047000065
:1011000000000000000001020304060708090000B7
:1011100000000000920E493CB10AC93C2BC3163DA9
:101120002EFB483D752B7B3D04A9963D80B6AF3D17
:1011300036BDC83D2FBCE13D73B2FA3D87CF093EB5
:101140008340163EB5AB223EA2102F3ECF6E3B3EF3
:10115000C2C5473E0115543E135C603E7F9A6C3E0B
:10116000CCCF783EC07D823E938E883E229A8E3EC2
:1011700032A0943E86A09A3EE59AA03E128FA63EEB
:10118000D47CAC3EEF63B23E2A44B83E491DBE3E1D
:1011900015EFC33E53B9C93ECA7BCF3E4136D53E5B
:1011A00080E8DA3E4F92E03E7533E63EBBCBEB3E45
:1011B000EA5AF13ECBE0F63E275DFC3EE4E7003F15
:1011C0003D9C033F824B063F9BF5083F6B9A0B3FCC
:1011D000DA390E3FCDD3103F2A68133FD9F6153FB9
:1011E000C07F183FC6021B3FD17F1D3FCBF61F3F7C
:1011F0009967223F25D2243F5636273F1594293F31
:101200004AEB2B3FDE3B2E3FBB85303FC9C8323F08
:10121000F304353F233A373F4268393F3B8F3B3F2A
:10122000F9AE3D3F67C73F3F70D8413F01E2433FC2
:1012300003E4453F65DE473F12D1493FF8BB4B3FD2
:10124000029F4D3F207A4F3F3D4D513F4918533F3C
:1012500031DB543FE595563F5348583F6AF2593FBA
:101260001A945B3F532D5D3F05BE5E3F2146603FB4
:1012700097C5613F5A3C633F59AA643F880F663F58
:10128000D86B673F3CBF683FA7096A3F0C4B6B3F79
:101290005E836C3F93B26D3F9ED86E3F73F56F3F98
:1012A0000809713F5213723F4714733FDD0B743FBF
:1012B0000BFA743FC6DE753F07BA763FC58B773FA2
:1012C000F853783F9812793F9DC7793F02737A3F70
:1012D000BE147B3FCDAC7B3F283B7C3FC9BF7C3FEE
:1012E000AC3A7D3FCCAB7D3F23137E3FB0707E3F59
:1012F0006DC47E3F580E7F3F6D4E7F3FAB847F3F76
:101300000FB17F3F97D37F3F43EC7F3F11FB7F3F80
:101310000000803F11FB7F3F43EC7F3F97D37F3F2F
:101320000FB17F3FAB847F3F6D4E7F3F580E7F3FB5
:101330006DC47E3FB0707E3F23137E3FCCAB7D3FBC
:10134000AC3A7D3FC9BF7C3F283B7C3FCDAC7B3F67
:10135000BE147B3F02737A3F9DC7793F9812793F55
:10136000F853783FC58B773F07BA763FC6DE753FA7
:101370000BFA743FDD0B743F4714733F5213723FF7
:101380000809713F73F56F3F9ED86E3F93B26D3F72
:101390005E836C3F0C4B6B3FA7096A3F3CBF683FC5
:1013A000D86B673F880F663F59AA643F5A3C633F3A
:1013B00097C5613F2146603F05BE5E3F532D5D3FAF
:1013C0001A945B3F6AF2593F5348583FE595563FA0
:1013D00031DB543F4918533F3D4D513F207A4F3F39
:1013E000029F4D3FF8BB4B3F12D1493F65DE473F5F
:1013F00003E4453F01E2433F70D8413F67C73F3FA9
:10140000F9AE3D3F3B8F3B3F4268393F233A373F80
:10141000F304353FC9C8323FBB85303FDE3B2E3F2A
:101420004AEB2B3F1594293F5636273F25D2243FC0
:101430009967223FCBF61F3FD17F1D3FC6021B3F5E
:10144000C07F183FD9F6153F2A68133FCDD3103F10
:10145000DA390E3F6B9A0B3F9BF5083F824B063FF4
:101460003D9C033FE4E7003F275DFC3ECBE0F63EBA
:10147000EA5AF13EBBCBEB3E7533E63E4F92E03E7F
:1014800080E8DA3E4136D53ECA7BCF3E53B9C93EED
:1014900015EFC33E491DBE3E2A44B83EEF63B23E3F
:1014A000D47CAC3E128FA63EE59AA03E86A09A3E22
:1014B00032A0943E229A8E3E938E883EC07D823E1C
:1014C000CCCF783E7F9A6C3E135C603E0115543E53
:1014D000C2C5473ECF6E3B3EA2102F3EB5AB223E6B
:1014E0008340163E87CF093E73B2FA3D2FBCE13DE3
:1014F00036BDC83D80B6AF3D04A9963D752B7B3DFA
:101500002EFB483D2BC3163DB10AC93C920E493C07
:1015100000000000920E49BCB10AC9BC2BC316BD25
:101520002EFB48BD752B7BBD04A996BD80B6AFBD13
:1015300036BDC8BD2FBCE1BD73B2FABD87CF09BEB1
:10154000834016BEB5AB22BEA2102FBECF6E3BBEEF
:10155000C2C547BE011554BE135C60BE7F9A6CBE07
:10156000CCCF78BEC07D82BE938E88BE229A8EBEBE
:1015700032A094BE86A09ABEE59AA0BE128FA6BEE7
:10158000D47CACBEEF63B2BE2A44B8BE491DBEBE19
:1015900015EFC3BE53B9C9BECA7BCFBE4136D5BE57
:1015A00080E8DABE4F92E0BE7533E6BEBBCBEBBE41
:1015B000EA5AF1BECBE0F6BE275DFCBEE4E700BF11
:1015C0003D9C03BF824B06BF9BF508BF6B9A0BBFC8
:1015D000DA390EBFCDD310BF2A6813BFD9F615BFB5
:1015E000C07F18BFC6021BBFD17F1DBFCBF61FBF78
:1015F000996722BF25D224BF563627BF159429BF2D
:101600004AEB2BBFDE3B2EBFBB8530BFC9C832BF04
:10161000F30435BF233A37BF426839BF3B8F3BBF26
:10162000F9AE3DBF67C73FBF70D841BF01E243BFBE
:1016300003E445BF65DE47BF12D149BFF8BB4BBFCE
:10164000029F4DBF207A4FBF3D4D51BF491853BF38
:1016500031DB54BFE59556BF534858BF6AF259BFB6
:101660001A945BBF532D5DBF05BE5EBF214660BFB0
:1016700097C561BF5A3C63BF59AA64BF880F66BF54
:10168000D86B67BF3CBF68BFA7096ABF0C4B6BBF75
:101690005E836CBF93B26DBF9ED86EBF73F56FBF94
:1016A000080971BF521372BF471473BFDD0B74BFBB
:1016B0000BFA74BFC6DE75BF07BA76BFC58B77BF9E
:1016C000F85378BF981279BF9DC779BF02737ABF6C
:1016D000BE147BBFCDAC7BBF283B7CBFC9BF7CBFEA
:1016E000AC3A7DBFCCAB7DBF23137EBFB0707EBF55
:1016F0006DC47EBF580E7FBF6D4E7FBFAB847FBF72
:101700000FB17FBF97D37FBF43EC7FBF11FB7FBF7C
:10171000000080BF11FB7FBF43EC7FBF97D37FBF2B
:101720000FB17FBFAB847FBF6D4E7FBF580E7FBFB1
:101730006DC47EBFB0707EBF23137EBFCCAB7DBFB8
:10174000AC3A7DBFC9BF7CBF283B7CBFCDAC7BBF63
:10175000BE147BBF02737ABF9DC779BF981279BF51
:10176000F85378BFC58B77BF07BA76BFC6DE75BFA3
:101770000BFA74BFDD0B74BF471473BF521372BFF3
:10178000080971BF73F56FBF9ED86EBF93B26DBF6E
:101790005E836CBF0C4B6BBFA7096ABF3CBF68BFC1
:1017A000D86B67BF880F66BF59AA64BF5A3C63BF36
:1017B00097C561BF214660BF05BE5EBF532D5DBFAB
:1017C0001A945BBF6AF259BF534858BFE59556BF9C
:1017D00031DB54BF491853BF3D4D51BF207A4FBF35
:1017E000029F4DBFF8BB4BBF12D149BF65DE47BF5B
:1017F00003E445BF01E243BF70D841BF67C73FBFA5
:10180000F9AE3DBF3B8F3BBF426839BF233A37BF7C
:10181000F30435BFC9C832BFBB8530BFDE3B2EBF26
:101820004AEB2BBF159429BF563627BF25D224BFBC
:10183000996722BFCBF61FBFD17F1DBFC6021BBF5A
:10184000C07F18BFD9F615BF2A6813BFCDD310BF0C
:10185000DA390EBF6B9A0BBF9BF508BF824B06BFF0
:101860003D9C03BFE4E700BF275DFCBECBE0F6BEB6
:10187000EA5AF1BEBBCBEBBE7533E6BE4F92E0BE7B
:1018800080E8DABE4136D5BECA7BCFBE53B9C9BEE9
:1018900015EFC3BE491DBEBE2A44B8BEEF63B2BE3B
:1018A000D47CACBE128FA6BEE59AA0BE86A09ABE1E
:1018B00032A094BE229A8EBE938E88BEC07D82BE18
:1018C000CCCF78BE7F9A6CBE135C60BE011554BE4F
:1018D000C2C547BECF6E3BBEA2102FBEB5AB22BE67
:1018E000834016BE87CF09BE73B2FABD2FBCE1BDDF
:1018F00036BDC8BD80B6AFBD04A996BD752B7BBDF6
:101900002EFB48BD2BC316BDB10AC9BC920E49BC03
:101910000000008034190008000000204C00000086
:10192000C4010008801900085000002008070000CA
:10193000E00100080024F4005CFB1C0219024E02C6
:10194000AC022503B0034504DC046E05F7057506FB
:10195000DB062D0766078207820766072D07DB0671
:101960007506F7056E05DC044504B0032503AC02DB
:101970004E0219021C025CFB010000001000000076
:0400000508000229C4
:00000001FF
