:020000040800F2
:10000000880B002071020008790200087B020008BA
:100010007D0200087F020008810200080000000045
:100020000000000000000000000000008302000843
:10003000850200080000000087020008D70C0008B5
:100040008B0200088B0200088B0200088B0200085C
:100050008B0200088B0200088B0200088B0200084C
:100060008B0200088B0200088B0200088B0200083C
:100070008B0200088B0200088B0200088B0200082C
:100080008B0200088B0200088B0200088B0200081C
:100090008B0200088B0200088B0200088B0200080C
:1000A0008B0200088B0200088B0200088B020008FC
:1000B0008B0200088B0200088B0200088B020008EC
:1000C0008B0200088B0200088B0200088B020008DC
:1000D0008B0200088B0200088B0200088B020008CC
:1000E0008B0200088B0200088B0200088B020008BC
:1000F0008B0200088B0200088B0200088B020008AC
:100100008B0200088B0200088B0200088B0200089B
:100110008B0200088B0200088B0200088B0200088B
:100120008B0200088B0200088B0200088B0200087B
:100130008B0200088B0200088B0200088B0200086B
:100140008B0200088B0200088B0200088B0200085B
:100150008B0200088B0200088B0200088B0200084B
:100160008B0200088B0200088B0200088B0200083B
:100170008B0200088B0200088B02000800000000C0
:100180008B0200088B02000800F002F800F060F813
:100190000AA090E8000C82448344AAF10107DA45E2
:1001A00001D100F055F8AFF2090EBAE80F0013F0D4
:1001B000010F18BFFB1A43F001031847A42A0000DF
:1001C000C42A000010F8013B0A4413F0030408BFDE
:1001D00010F8014B1D1108BF10F8015B641E05D01B
:1001E00010F8016B641E01F8016BF9D1002D15D0D8
:1001F00010F8014B03F00C030C2BA1EB04040ABF15
:1002000010F8013BA4EB8314A4EB032405F10103D4
:1002100014F8016B5B1E01F8016BF9D5914238BFF0
:1002200010F8013BD1D3704700230024002500269D
:10023000103A28BF78C1FBD8520728BF30C148BF49
:100240000B6070471FB502F032FC1FBD10B510BD2A
:1002500000F0E2F81146FFF7F5FF01F063FD00F052
:1002600000F903B4FFF7F2FF03BC00F003F900004C
:100270000948804709480047FEE7FEE7FEE7FEE73A
:10028000FEE7FEE7FEE7FEE7FEE7FEE70448054976
:10029000054A064B704700009D0D000889010008C3
:1002A00088050020880B0020880700208807002090
:1002B00053EA020C00F069802DE9F04B4FF0000684
:1002C000002B1FBFB3FA83F503FA05F424FA05F6F1
:1002D0005E4012BF1643B2FA82F502FA05F4C5F188
:1002E00020051EBF22FA05FC44EA0C04203556EA1C
:1002F000044C4FEA144418BF641C4FF000084FF040
:100300000009904271EB030C39D3002919BFB1FAEF
:1003100081F701FA07F6B0FA80F700FA07F6C7F19D
:1003200020071EBF20FA07FC46EA0C062037B6FB62
:10033000F4FCA7EB0507103F07F01F0BCBF12006DD
:100340000CFA0BFB2CFA06F644BFB3460026202F0E
:10035000A4BF5E464FF0000B5BEA060C08BF4FF0EF
:10036000010B19EB0B09ABFB027C48EB0608C01B29
:1003700006FB02CC0BFB03CC71EB0C01C1E70B4677
:10038000024641464846BDE8F08B13B54FF00000E9
:100390004FF00001AFF30080BDE81C4070474FF004
:1003A000000200B5134694469646203922BFA0E8C5
:1003B0000C50A0E80C50B1F12001BFF4F7AF0907D1
:1003C00028BFA0E80C5048BF0CC05DF804EB8900C2
:1003D00028BF40F8042B08BF704748BF20F8022B05
:1003E00011F0804F18BF00F8012B7047704770471D
:1003F000704710B500F008F8006810BD10B504464D
:1004000000F002F8046010BD004870472405002089
:1004100000487047240500207546FFF7F9FFAE46F7
:1004200005006946534620F00700854618B020B500
:10043000FFF72CFFBDE820404FF000064FF000070B
:100440004FF000084FF0000B21F00701AC46ACE87C
:10045000C009ACE8C009ACE8C009ACE8C0098D46E9
:10046000704710B50446AFF300802046BDE8104049
:10047000FFF7F7BE01491820ABBEFEE726000200D9
:10048000704772B600BFFEE7014800687047000081
:10049000140500200348006803490978084401490D
:1004A00008607047140500201C05002010B50A489C
:1004B000006840F40070084908600846006840F48D
:1004C00080600860032000F06FF80F2000F006F84D
:1004D00000F02AF8002010BD003C024070B5044630
:1004E0000E4800784FF47A71B1FBF0F00C490968BE
:1004F000B1FBF0F5284600F0D0FB08B1012070BD3B
:10050000102C07D200222146501E00F00EF805489C
:10051000046001E00120F2E70020F0E71C05002064
:10052000200500201805002070472DE9F05F804667
:100530000D461646002700F057FC074639462A4666
:10054000334601F00700C0F1070ABAF1040F02D9DF
:100550004FF0040A01E0C0F1070AD14600F1040A95
:10056000BAF1070F02D24FF0000A01E0A0F1030A2E
:10057000D4464FF0010A0AFA09FAAAF1010A0AEA76
:10058000020A0AFA0CFA4FF0010B0BFA0CFBABF162
:10059000010B0BEA030B4AEA0B042146404600F02C
:1005A0002BFCBDE8F09F000000BF00F00702064BE7
:1005B00019684FF6FF031940044B0B4343EA02212D
:1005C000014B196000BF70470CED00E00000FA0518
:1005D00070B504460D460CB9012070BD584800683E
:1005E00000F00F00A84209D255490D700846006876
:1005F00000F00F00A84201D00120EEE7207800F0C3
:10060000020002281DD1207800F00400042805D142
:100610004C48006840F4E0504A490860207800F0F7
:100620000800082805D14748006840F46040454963
:1006300008604448006820F0F000A1680843414980
:100640000860207800F00100A8B36068012807D195
:100650003C4808380068C0F34040B8B90120BCE706
:100660006068022802D06068032807D1354808383E
:100670000068C0F3406048B90120AEE7314808384F
:100680000068C0F3400008B90120A6E72D480068C3
:1006900020F00300616808432A490860FFF7F4FE70
:1006A000064609E0FFF7F0FE801B41F288318842E0
:1006B00002D9032091E707E02248006800F00C000F
:1006C0006168B0EB810FEDD11D48006800F00F00AC
:1006D000A84209D91A490D700846006800F00F00B9
:1006E000A84201D0012078E7207800F00400042817
:1006F00007D11448006820F4E050E168084311492C
:100700000860207800F00800082808D10D4800682B
:1007100020F46040216940EAC1000A49086000F005
:100720001FF808490968C1F30311074A515CC84022
:100730000649086006480068FFF7D0FE00204CE735
:10074000003C024008380240B22B0008200500207F
:1007500018050020014800687047000020050020AF
:100760002DE9F047002400250026A1462548006811
:1007700000F00C0020B1042805D008283AD105E08B
:10078000DFF8849039E0DFF8849036E01D48001FE0
:10079000006800F03F041B48001F006800F4800060
:1007A00078B11A481749091F0968C1F38811A0FBDD
:1007B00001700146224600233846FFF779FD0546C1
:1007C0000EE011480F49091F0968C1F38811A0FB09
:1007D00001700146224600233846FFF769FD0546B1
:1007E0000848001F0068C0F30140401C4600B5FBEC
:1007F000F6F902E0DFF8109000BF00BF4846BDE800
:10080000F0870000083802400024F40040787D01A1
:10081000F8B504460CB90120F8BD207800F00100BD
:10082000002874D0F948006800F00C0004280DD0AE
:10083000F648006800F00C00082813D1F348001FA8
:10084000006800F48000B0F5800F0BD1EF48083845
:100850000068C0F34040002859D06068002856D195
:100860000120D9E700BF6068B0F5803F08D1E748B4
:100870000838006840F48030E449083908601EE018
:100880006068B0F5A02F0DD1E0480838006840F44A
:100890008020DE49083908600846006840F480304E
:1008A00008600CE0D9480838006820F48030D74947
:1008B000083908600846006820F48020086000BFFE
:1008C000606890B1FFF7E0FD054606E0FFF7DCFD4C
:1008D000401B642801D903209EE7CC4808380068F3
:1008E000C0F340400028F1D011E0FFF7CDFD0546F0
:1008F00006E0FFF7C9FD401B642801D903208BE700
:10090000C24808380068C0F340400028F1D1207880
:1009100000F0020002285FD1BC48006800F00C0023
:1009200058B1BA48006800F00C0008281CD1B7483C
:10093000001F006800F48000B0B9B44808380068AF
:10094000C0F3400020B1E068012801D0012063E736
:10095000AE480838006820F0F800216940EAC1007C
:10096000AA490839086037E0E06800B30120A849C7
:100970000860FFF789FD054606E0FFF785FD401B8F
:10098000022801D9032047E7A04808380068C0F3CF
:1009900040000028F1D09D480838006820F0F80099
:1009A000216940EAC10099490839086014E0002033
:1009B00097490860FFF768FD054606E0FFF764FD0C
:1009C000401B022801D9032026E790480838006818
:1009D000C0F340000028F1D1207800F0080008287A
:1009E0002CD16069A8B101208A490860FFF74CFD4D
:1009F000054606E0FFF748FD401B022801D9032009
:100A00000AE782486C300068C0F340000028F1D04B
:100A100014E000207F490860FFF736FD054606E038
:100A2000FFF732FD401B022801D90320F4E6774886
:100A30006C300068C0F340000028F1D1207800F04D
:100A40000400042870D1002770483830006800F096
:100A5000805090B900BF002000906C48383000688A
:100A600040F080506949383108600846006800F05D
:100A70008050009000BF00BF01276748006800F465
:100A80008070B0B96448006840F4807062490860C2
:100A9000FFF7FAFC054606E0FFF7F6FC401B0228CC
:100AA00001D90320B8E65C48006800F48070002893
:100AB000F2D000BFA068012808D15448683000680F
:100AC00040F001005149683108601DE0A068052828
:100AD0000DD14E486830006840F004004B49683141
:100AE00008600846006840F0010008600CE04748D4
:100AF0006830006820F00100444968310860084609
:100B0000006820F00400086000BFA068A8B1FFF7EB
:100B1000BBFC054609E0FFF7B7FC401B41F28831FA
:100B2000884202D9032077E626E03848683000681A
:100B3000C0F340000028EED013E0FFF7A5FC054607
:100B400008E0FFF7A1FC401B41F28831884201D93F
:100B5000032061E62D4868300068C0F3400000289B
:100B6000EFD1012F07D129483830006820F080509C
:100B700026493831086000BFA069002845D02348C5
:100B8000006800F00C0008285DD0A069022845D15B
:100B900000201F490866FFF777FC054606E0FFF7CF
:100BA00073FC401B022801D9032035E6174808389A
:100BB0000068C0F340600028F1D1D4E90701084380
:100BC000616A40EA81110122A06AC2EB500041EA49
:100BD00000412C20005D41EA00600C49091F0860BB
:100BE00001200B490866FFF74FFC054606E0FFF7BA
:100BF0004BFC401B022801D903200DE603480838AE
:100C00000068C0F340600028F1D03FE0083802409F
:100C100000004742800E47420070004000201C49FF
:100C20000866FFF731FC054606E0FFF72DFC401B88
:100C3000022801D90320EFE516480068C0F34060A0
:100C40000028F2D122E0A069012800D1E4E5114892
:100C5000001D066806F48001E069814214D106F0A7
:100C60003F01206A81420FD147F6C0703040616A6F
:100C7000884209D106F44031A06A814204D106F0CD
:100C80007061E06A814201D00120C5E50020C3E522
:100C90000000474200380240704770B504462546C0
:100CA000681EB0F1807F01D301200FE0681E4FF075
:100CB000E02148610F214FF0FF3000F09DF8002047
:100CC0004FF0E021886107200861002070BD10B559
:100CD000FFF7E2FF10BD10B5FFF7DCFBFFF7F7FFF2
:100CE00010BD000000B593B0302107A8FFF757FBF7
:100CF000142102A8FFF753FB00BF002001902548F4
:100D0000006840F08050234908600846006800F001
:100D10008050019000BF00BF00BF002001901E481E
:100D2000006840F480401C4908600846006800F4F0
:100D30008040019000BF00BF0220079001200A9070
:100D400010200B9002200D9000210E9108210F9190
:100D5000A8211091022111910421129107A8FFF7F7
:100D600057FD08B1FFF78DFB0F2002900220039082
:100D7000002004904FF4A05005904FF4805006904E
:100D8000052102A8FFF724FC08B1FFF77AFB13B096
:100D900000BD000040380240007000400548006877
:100DA00040F47000034908604FF000600149803949
:100DB0000860704788ED00E003B401984100009896
:100DC00050EAC12018BF04204A0D18BF40F00100AE
:100DD00040F2FF72B2EB515F08BF40F00200012801
:100DE00008BF052002B0704702480068C0F3022027
:100DF000704700000CED00E010B5002804DB0A0786
:100E0000130E054A135406E00A07140E034A00F0B5
:100E10000F031B1FD45410BD00E400E018ED00E0E8
:100E20002DE9F04D2DED040B2DED0E8B96B0DDE987
:100E30002550279CDDF890A025F0004624F00048BE
:100E4000BAF1000F14BF0121002101EB4502FC495A
:100E500053184A1093422AD3002814BF01230023B9
:100E600003EB44030B44F7498B4220D358EA0001BB
:100E70009FEDF59B76D0DFF8D8B35D4503D1BAF18D
:100E8000000F05D188E0BAF1000F08BF002100D0A3
:100E9000012101EB450111F5001F08D8002814BFFE
:100EA0000121002101EB440111F5001F0BD99DED3B
:100EB000261B9DED240B16B0BDEC0E8B04B0BDE8D7
:100EC000F04D00F069BE0027002DBCBFE149884508
:100ED00021DAE1498845A8BF02271CDAC3451ADC9C
:100EE000DE4901EB2851142908DDC1F1340220FA52
:100EF00002F101FA02F282420DD108E058B9C1F1C3
:100F0000140228FA02F101FA02F2424503D101F07B
:100F10000101C1F1020756EA0A0124D1002C22DAAC
:100F2000002D18BF022F01D0012F0AD00220FFF799
:100F300065FA16B0BDEC0E8B04B0BDE8F04D00F0C4
:100F400013BE0220FFF75AFA00F00EFE51EC100B10
:100F500000F09FFF41EC100B16B0BDEC0E8B04B0FF
:100F6000BDE8F08D18E09FEDBEAB9FEDBF8B002874
:100F700071D1B848804522D105F1804010F580102C
:100F800008BFBAF1000F07D0B3450ADC002CA8BF98
:100F90009DED260BE0DA0DE0B0EE490AF0EE690AAD
:100FA000DAE7002C06DA9DED260B51EC100B00F071
:100FB00070FF6FE0AE48784490ED000BCCE7D84569
:100FC0004DD1002C48DA2EB186423AD1BAF1000F49
:100FD00042D126E0BAF1000F13D00220FFF70EFA3B
:100FE00000F0F6FD8DED020B9DED240B8DED000B59
:100FF00010EE900A039961F31E0003909DED020B21
:10100000AAE78DED02AB9DED240B1AEE901A10EEBF
:10101000900A8DED000B61F31E0003909DED020B15
:101020009AE78DED028B9DED240B18EE901A10EED1
:10103000900A8DED000B61F31E0003909DED020BF5
:101040008AE709DA9DED240B51EC190B53EC102BB8
:1010500001F01AF81EE020E09DED240B7CE78642AB
:101060001BDAB4F1804F0DD0A4F10050B0F1FF5065
:1010700013D1002D11DB9DED240B51EC100B00F072
:10108000D1FE07E09DED240B53EC102B51EC100B1F
:1010900000F0C2BC41EC100B5EE79DED240B51EC5F
:1010A000100B00F033FEBAF1000FCDE90E0142D172
:1010B0009FED710B46B3A6F1E040B0F17F600CD01C
:1010C0005E4538D1002D00DAA7B3022F0CBF0120F6
:1010D0004FF0FF3001F030F9DCE7002D01DD002C8E
:1010E0000DDA002D01DD002C1FDB002D16DA002C9F
:1010F00014DB012F08BF9FED620B3FF42DAFB0EE64
:101100004A0AF0EE6A0A27E7022F18BF002D0CD01A
:10111000012F0AD1002DFFF61FAF06E0002DB8BF4A
:10112000002C08DA012F3FF417AFB0EE480AF0EEBA
:10113000680A11E71BE0012000EBE57050EA0701A7
:1011400015D0791EB0EE498AF0EE698A084308BFCF
:101150009FED4D8B4E480025804570DD4D494E4832
:10116000884514DDB0420DDB002C19DB2FE0012097
:10117000FFF744F916B0BDEC0E8B04B0BDE8F04D9E
:1011800000F016BDB34502DC002C09DC1FE08642EE
:1011900002DA002C1BDA03E05E452BDD002C16DDA5
:1011A0000220FFF72BF900F013FD8DED020B53EC3D
:1011B0001A2B51EC180B01F013F9CDE9000103993A
:1011C000019861F31E0003909DED020BC4E602201E
:1011D000FFF714F900F00CFD10EE901A18EE900ACB
:1011E0008DED020B8DED008B61F31E0003909DEDE4
:1011F000020BB1E69DED0E0B53EC192B51EC100BCD
:1012000001F0FAFA9FED260BCDE9080153EC102B03
:101210009DED080B51EC100B01F0E2F89FED221B45
:1012200053EC112B01F010FA9DED081B53EC112B20
:1012300001F0D6F89FED1E1B53EC112B3CE08CE027
:10124000FFFF1F00FFFF0F00000000000000F03F45
:101250000000F03F0000F07F0000404301FCFFFF72
:10126000000000000000F07F00000000000000000F
:101270009E1C000000000000000000000000008034
:10128000000000000000F0FF000000000000F0BFC0
:101290000000E0410000F043FFFFEF3F00000000CE
:1012A000000000000000D03F555555555555D53F1D
:1012B000000000000000E03F01F0C6F99DED080BC2
:1012C00041EC1A0B53EC102B51EC100B01F088F889
:1012D00053EC1A2B01F084F841EC1A0B9FEDFE0B36
:1012E00053EC102B9DED080B51EC100B01F078F82E
:1012F00041EC1B0B9FEDFA0B51EC1A0B53EC102B2E
:1013000001F06EF841EC1A0B9FEDF70B53EC102B2C
:101310009DED080B51EC100B01F062F853EC1A2B09
:1013200001F06AFA41EC1A0B51EC1B0B53EC1A2B2F
:1013300000F0EEFD0690CDE906519DED060B53EC55
:101340001B2B51EC100B01F057FA53EC1A2B01F048
:101350007BF941EC100B00F0A1B90020B6F5801F1D
:101360000EDA9FEDE30B53EC102B9DED0E0B51ECC1
:10137000100B01F035F8CDE90E016FF034000E4688
:1013800000EB2650A0F2FF37C6F31300DA4940F015
:101390007F6646F040568842D8BF002408DDD74912
:1013A0008142C8BF012403DC0024A6F580167F1CFF
:1013B000D348784400EBC4000F9690ED00CB9DED30
:1013C0000E0B53EC1C2B51EC100B01F015FA9DED9C
:1013D0000E0B41EC1B0B53EC1C2B51EC100B00F0D3
:1013E00097FD41EC100B51EC190B53EC102B00F056
:1013F0004BFE41EC1D0B51EC1B0B53EC1D2B00F075
:10140000EFFF41EC1A0BBF488DED10AB78441095FF
:1014100090ED000B4FF0005040EA660000EB844076
:101420008DED080B00F5002009909DED080B53ECA5
:101430001C2B51EC100B01F0DFF99DED0E1B53EC52
:10144000112B01F001F941EC100B53EC102B9DED29
:10145000100B51EC100B00F0C3FF9DED080B41EC9D
:101460001C0B53EC102B9DED100B51EC100B00F0EE
:10147000B7FF53EC1B2B01F0E7F853EC1C2B01F0EA
:10148000BBF953EC1D2B00F0ABFF41EC1C0B53ECF4
:101490001A2B51EC1A0B00F0A3FF41EC1B0B9A48DE
:1014A0000621B0EE4B0AF0EE6B0A784400F0E0FA49
:1014B000B0EE401AF0EE601AB0EE41DAF0EE61DA0A
:1014C00053EC1B2B51EC1B0B00F08AFF53EC1D2B34
:1014D00000F086FF9DED100B41EC1B0B53EC1A2B1B
:1014E00051EC100B00F014FD53EC1C2B00F078FFB6
:1014F00053EC1B2B00F00CFD9DED100B41EC1B0B76
:1015000053EC102B51EC100B00F06AFF41EC1D0B5B
:101510009FED7FEB53EC1E2B00F0FAFC53EC1B2BE2
:1015200000F0F6FC0890CDE908519DED080B53EC56
:101530001E2B51EC100B01F05FF953EC1D2B01F049
:101540005BF953EC1B2B01F07FF89DED080B41EC90
:101550001D0B53EC102B9DED100B51EC100B00F0FC
:101560003FFF41EC1B0B53EC1A2B51EC1D0B00F011
:1015700037FF9DED080B41EC1A0B53EC102B51EC8F
:101580001C0B00F02DFF53EC1A2B00F0C1FC41ECBA
:101590001A0B51EC1B0B53EC1A2B00F0B9FC0C90FE
:1015A000CDE90C519DED0C0B53EC1B2B51EC100BAA
:1015B00001F022F953EC1A2B01F046F841EC1B0B19
:1015C0009FED550B53EC102B9DED0C0B51EC100BBC
:1015D00000F006FF41EC1A0B9FED510B51EC1B0B79
:1015E00053EC102B00F0FCFE41EC1B0B9FED4E0B5F
:1015F00053EC102B9DED0C0B51EC100B00F0F0FE9A
:1016000053EC1B2B00F084FC41EC100B4848784451
:1016100000EBC40090ED001B51EC100B53EC112BB0
:1016200000F076FC41EC1B0B384600F085FECDE95E
:10163000080153EC1B2B51EC1A0B00F069FC41EC38
:10164000100B3C48784400EBC40090ED00CB51EC0B
:10165000100B53EC1C2B00F05BFC9DED081B53ECB6
:10166000112B00F055FC0690CDE906519DED080BBD
:1016700053EC102B9DED060B51EC100B01F0BCF858
:1016800053EC1C2B01F0B8F853EC1A2B01F0B4F812
:1016900053EC1B2B00F0D8FF41EC100B9DED261BEB
:1016A00053EC102B8DED001B00959DED260B51EC9E
:1016B000100B00F095FE9DED000B41EC1A0B53EC66
:1016C000102B9DED260B51EC100B01F095F89DEDC4
:1016D000061B53EC112B2FE0000000604715F73F6D
:1016E000FE822B654715F73F44DF5DF80BAE543E95
:1016F00000000000000040438E9803007AB60B0003
:101700001A180000481800005217000000000000DE
:101710000000000000000840000000E009C7EE3FA4
:10172000FD033ADC09C7EE3FF5015B14E02F3EBE36
:10173000DE1500009815000000F052FE53EC1A2B45
:1017400000F0E6FB9DED060B41EC1A0B53EC102B61
:101750009DED000B51EC100B00F042FECDE90C01A9
:101760009DED0C0B51EC1A0B53EC102B00F0D0FB41
:10177000CDE902010C46AA498C422FDB611A0843CD
:1017800018D19DED0C0B53EC102B9DED020B51EC81
:10179000100B01F031F841EC1B0B9FEDA30B51EC4A
:1017A0001A0B53EC102B00F0B3FB53EC1B2B00F087
:1017B00015FF2DD20220FEF721FE00F009FA10EEEF
:1017C000901A18EE900A8DED020B8DED008B61F3EF
:1017D0001E0003909DED020BFFF7BEBB944A24F060
:1017E0000041914214D39349214408437FF4EFAC64
:1017F0009DED0C0B53EC102B9DED020B51EC100BDF
:1018000000F0FAFF53EC1A2B00F0E8FE7FF6DFAC95
:1018100024F000408849894A002601EB2051824289
:101820002BDA481C4FF4801121FA00F02044844A3E
:10183000C0F30A517A44A1F2FF3192ED000B814AC4
:101840008DED080BCA4020EA0202C0F3130040F4F9
:101850008010C1F1140120FA01F60992002CB8BFE2
:1018600076429DED080B53EC102B9DED0C0B51ECCB
:10187000100B00F0C1FFCDE90C019DED0C0B51ECFC
:101880001A0B53EC102B00F043FB9FED6F0B0890ED
:10189000CDE9085153EC102B9DED080B51EC100BCA
:1018A00000F09EFD41EC1B0B9FED690B53EC102BE0
:1018B0009DED080B51EC100B00F092FD9DED0C0B13
:1018C00041EC1C0B53EC102B9DED080B51EC100B55
:1018D00000F092FF53EC1A2B00F0B6FE9FED5E1B5A
:1018E00053EC112B00F07CFD53EC1C2B00F010FB93
:1018F00041EC1A0B51EC1B0B53EC1A2B00F008FBBC
:10190000CDE902019DED020B53EC1B2B51EC100BAA
:1019100000F072FF53EC1A2B00F096FE9DED020BC7
:1019200041EC1A0B53EC102B51EC100B00F058FD4E
:10193000CDE908014A489DED080B0521784400F0E7
:1019400097F89DED081B51EC100B53EC112B00F098
:1019500047FD9DED021B53EC112B00F075FECDE908
:1019600006019DED020B53EC1A2B51EC100B00F00D
:1019700037FD53EC1A2B00F0CBFA9FED3B0B41ECFB
:101980001A0B53EC102B9DED060B51EC100B00F0D5
:1019900033FF9DED060B41EC1B0B53EC102B9DED23
:1019A000020B51EC100B00F01BFD53EC1B2B00F055
:1019B0006BFB53EC1A2B00F01FFF9DED021B53EC49
:1019C000112B00F019FF53EC192B00F03DFECDE96F
:1019D000020101EB065001150029C8BF039015DC78
:1019E0009DED020B324651EC100B01F09CF8FFF715
:1019F000E3F9042808BF00F0FBF832469DED020B26
:101A000051EC100B01F08FF8CDE902019DED020BB6
:101A100051EC180B53EC102B00F0E2FCFFF73ABB33
:101A20000000904000000000FE822B654715973CA7
:101A300000CC904000346F3F01FCFFFF0000E03F0E
:101A400020140000FFFF0F0000000000432EE63FBF
:101A5000396CA80C615C20BEEF39FAFE422EE63FDD
:101A6000F012000000000000000000000000004034
:101A700070B504462DED028B4D1E00EBC500B0EE97
:101A8000408AF0EE608A90ED000B35F0060017D02A
:101A900053EC182B51EC100B00F0A2FC41EC100B96
:101AA0006D1E04EBC50090ED001B51EC100B53ECC8
:101AB000112B00F02DFA41EC100B35F00600E7D1A8
:101AC000022D36D0042D1CD0062D1CBFBDEC028B80
:101AD00070BD53EC182B51EC100B00F081FC94ED11
:101AE0000A1B53EC112B00F013FA53EC182B00F0E7
:101AF00077FC94ED081B53EC112B00F009FA41EC34
:101B0000100B53EC182B51EC100B00F069FC94ED0A
:101B1000061B53EC112B00F0FBF953EC182B00F0D3
:101B20005FFC94ED040B53EC102B00F0F1F941EC49
:101B3000100B53EC182B51EC100B00F051FC94EDF2
:101B4000021B53EC112B00F0E3F953EC182B00F0BF
:101B500047FC94ED001B53EC112B00F0D9F9BDECC0
:101B6000028B41EC100B70BD9FED070B10B553ECD1
:101B7000102B9FED070B51EC100B00F085FA41EC98
:101B8000100B10BD0000000000000000000000006D
:101B9000000000000000F03F10B553EC112B51EC99
:101BA000100B00F0B5F941EC100B10BD0000000067
:101BB0009FED050B10B553EC102B51EC100B00F002
:101BC00063FA41EC100B10BD0000000000000000A3
:101BD0009FED050B10B553EC102B51EC100B00F0E2
:101BE000FFFB41EC100B10BD000000000000007076
:101BF0009FED050B10B553EC102B51EC100B00F0C2
:101C0000EFFB41EC100B10BD0000000000000010C5
:101C100010B5DFED0C0AB0EE600A0B4606E0F0EC02
:101C2000010A70EE800AB0EE600A5B1E002BF6D14E
:101C300000EE901AF8EE600A80EE201A82ED001A8B
:101C400010BD00000000000078B505460E461446A1
:101C50006A463146284600F015F89DED000AB5EEBB
:101C6000C00AF1EE10FA04DBF1EEC00AC4ED000A7E
:101C700004E0DFED030AC4ED000A00BF78BD0000F8
:101C80000000000030B5034614469FED1F2AF0EE19
:101C9000420A9FED1D2AB0EE421A1A46012904D8C5
:101CA0009FED192A84ED002A30BD084606E0B2EC0B
:101CB000012A32EE202AF0EE420A401E0028F6D118
:101CC00002EE101AB8EE422AC0EE821A1A460846F0
:101CD0000AE0B2EC012A32EE610AB0EE412A00EECF
:101CE000002AB0EE421A401E0028F2D102EE101A6D
:101CF000B8EE422AF7EE002A32EE622AC1EE022A3C
:101D0000C4ED002A00BFCFE70000000082B0CDE99B
:101D1000000121F0004001909DED000B02B051EC5C
:101D2000100B7047FEF7C2FBFEF7DCFFFEF712FD5B
:101D300010490860104A4FF4A0711048FFF768FF7F
:101D40000F4A4FF4A0710D48FFF79CFF4FF4A071AC
:101D5000094890ED000A094800F016F8084880ED9F
:101D6000000A084A4FF4A0710448FFF76DFF00BF56
:101D7000FEE7000000000020080000201400002002
:101D80000C0000201000002070B52DED0A8B0546D8
:101D9000F0EE408A0E469FED200AB0EE408A002405
:101DA00029E005EB840090ED000A30EE680A10EEA1
:101DB000101A084600F00AFE41EC1C0B9FED171BA1
:101DC000B0EE4C0AF0EE6C0AFFF72AF8B0EE40AA2B
:101DD000F0EE60AA18EE100A00F0F8FD41EC1B0BC3
:101DE00053EC1A2B00F094F841EC190B00F05EF85C
:101DF00008EE100A641CB4F5A07FD2DB701E00EE62
:101E0000100AB8EE400AC8EE000AB0EE608AB0EEE2
:101E1000480ABDEC0A8B70BD000000000000000005
:101E20000000004000B52DED048B83B041EC190B90
:101E300000F016FC41EC180B18EE100A18EE901A80
:101E40008DED008B002818BF0120084320F00040D2
:101E5000C0F17F6000F1E040C00F14D019EE101AFD
:101E600019EE900A8DED009B002918BF012108434F
:101E700020F00040C0F17F6000F1E040C00F04BFDF
:101E80000120FEF7BBFA51EC180B03B0BDEC048B3C
:101E900000BD81F00041704780F00040704721F0A4
:101EA0000041704720F000407047000021F00042E0
:101EB000A2F16052B2F5801F01F0004328BFD2F1B9
:101EC0007F6C0BD95FEA001C43EAC20242EB507000
:101ED00018BF704728BF20F001007047B2F5801F7F
:101EE000BCBF184670474FEA410C1CF5001F02D2D8
:101EF000084600F0E1BD70B500F01CFB0000008951
:101F0000FFF7F6BF4FF00040A0F5800070470000DB
:101F100010B591EA030F48BF83F0004300F17484C9
:101F2000841A71EB030C05D2121943EB0C03001B4E
:101F300061EB0C01DFF824E14FEA1154A4EB135CD0
:101F40001EEA430F18BF9EEA445F73D023EA0E03D4
:101F5000DCF1200E21EA045143F4801332D322FA3B
:101F60000CFE10EB0E0023FA0CFE41EB0E01CCF13F
:101F7000200E03FA0EFE10EB0E0051F10001B1F538
:101F8000801FCCF1200E32D201EB045112FA0EF276
:101F9000BDE8104058BF7047401C38BF5FEA42029E
:101FA00018BF7047002814BF20F0010041F1000164
:101FB0004FEA410313F5001F38BF7047A1F1C0413C
:101FC00000F006BB012A43EB0302ACF1200CDCF16C
:101FD0001F0E32BF4FF0000E23FA0CF310EB03007C
:101FE00041EB0451B4EB115FD0D0A1EB045101F5EA
:101FF000801149085FEA300001EB04510ED350F123
:10200000000038BF12FA0EFE08D1BDE81040C9E743
:10201000401C38BF5FEA4202CAD1C3E7BDE81040A6
:102020004FEA410313F5001F38BF7047A1F1C041CB
:1020300000F0CEBA9EEA445F08D011EA5E0FBDE818
:10204000104004BF01F0004100207047BDE810407F
:1020500070B500F06FFA00BF64FBBE3E0000E0FF09
:1020600002494FF0000000F02CBD00BF0000F87FD7
:10207000491058BFC1F140415B1058BFC3F1404304
:102080008B42EFF3008070472DE9C04130B4DFF898
:10209000A0C23CEA111418BF3CEA131400F0EC8013
:1020A00081EA03051CEA111444EAD57418BF1CEA3E
:1020B000131500F0C780A4EB05044FF0004545EA76
:1020C000C12145EAC32341EA505143EA525304F186
:1020D0007F74994204F500344FEAC0204FEAC222CF
:1020E00008BF904200F09C804FEA13650FF2401643
:1020F000765D4FEA134506FB05F7C7F1807706FBCF
:1021000007F74FEAD737A7FB03687642C8F5803850
:10211000A7FB06CE38BFA8F1010807FB08E64FF081
:10212000000EA6FB028CE6FB03CEDCF1000CCEF128
:10213000004E38BFAEF1010EA6FB0C584FF0000761
:102140004FF00005E6FB0E87A1FB08C6A0FB07CEFB
:1021500016EB0E0645F10005E1FB076515F1E04EB3
:102160007EBFA4F580345FEA46066D4116F1800714
:1021700045F100054FEA17274FEA066647EA05676B
:10218000A6F1DE46B6F1805F4FEA15251FD9384625
:1021900024F0010C05EBC471BCF1FE6F01EB0C11D6
:1021A00002D8F0BCBDE8008124425CBF01F5801E6E
:1021B0009EEAC47F02D4F0BCBDE80081244238D43A
:1021C000F0BCA1F1C041BDE8004100F001BA4FEA06
:1021D000D22242EA43524FEAD323A7FB02864FEAB8
:1021E000D02040EA415007FB03661EEA0E0F4FEA7B
:1021F000D12105FB026658BFA6EB0056B6EB005690
:102200004FEA520E4EEAC37E18EB0E0E56EB530EFB
:10221000BDD518EB02085E417F1C55F10005B6E7FD
:102220004FF480154FF000074FF000064FF0000804
:10223000ADE7F0BC4FF0000001F1C04101F00041FA
:10224000BDE8008111EA0C1F0CEA131500D00CE068
:1022500013EA0C1F00F025804FF00000F0BC81EA6B
:10226000030101F00041BDE80081F0BCBDE8004180
:1022700081EA030100F0ACB9F0BCBDE8004170B5E3
:1022800000F058F9097EFC3E00F007B881EA03012E
:102290004FF0000001F00041704781EA030100F0B7
:1022A00097B9F0BCBDE800414FF0000021497047EC
:1022B000FFFDFBF9F7F5F4F2F0EEEDEBE9E8E6E40B
:1022C000E3E1E0DEDDDBDAD8D7D5D4D3D1D0CFCD92
:1022D000CCCBCAC8C7C6C5C4C2C1C0BFBEBDBCBBCB
:1022E000BAB9B8B7B6B5B4B3B2B1B0AFAEADACABC6
:1022F000AAA9A8A8A7A6A5A4A3A3A2A1A09F9F9EA0
:102300009D9C9C9B9A999998979796959594939351
:10231000929191908F8F8E8E8D8C8C8B8B8A8989E8
:10232000888887878685858484838382828181806B
:102330000000FF070000F87F10F0004248BF404255
:10234000B0FA80F310FA03F10AD0C3F11D0303F5CC
:1023500080634FEA415002EB035202EBD1217047F8
:102360004FF000007047000051EA030C17D41CF531
:10237000801F58BFBCF5801F00F10680994218BF2E
:10238000704708BF9042704707D711F5801F58BFAC
:1023900013F5801F19D499427047894270471CF584
:1023A000801F08D5BCF5801FF7D58B4218BF70473A
:1023B00008BF824270474FF4001C1CEB410F38BF2E
:1023C0001CEB430F01D28B42704770B500F0B2F89E
:1023D000922449004FF000514FF08053FFF748BE60
:1023E000DFF848C170B51CEA111E1EBF1CEA1315A8
:1023F0009EEA0C0F95EA0C0F00F06F8081EA03044F
:1024000023EA4C134EEAD47E21EA4C1141F48011A8
:1024100043F48013AE44A1FB024CA0FB0365AEF174
:102420007F7E361955EB0C05A1FB034C4CF10003E4
:10243000A0FB021C16EB0C06654153F10003094298
:1024400018BF46F0010613F4007F0BD14FEA0331A9
:102450004FEA0530340341EA155140EA16506FF057
:1024600003020AE04FEAC3214FEAC520F40241EA21
:10247000555140EA56506FF0020202EB2E4201EB3A
:10248000025585EACE710AD05FEA440C18BF24F0E9
:10249000004450F1000041F1000120EAD47040F204
:1024A000FE7C624500D270BDA84214BF4FF080444C
:1024B0004FF04044002E08BF0024BEF1806FA8BF3B
:1024C000A1F1C041BDE8704080F282804FF0000071
:1024D00001F1C04101F0004170479EEA0C0F0CEA87
:1024E000131518BF95EA0C0F06D04FF0000081EAD3
:1024F000030E0EF0004170BD00F01CF88900013E93
:1025000000F007B800F009B84FEA430C5FEA5C5CE2
:1025100008D081EA030100F05BB84FEA410C5FEAA2
:102520005C5CF6D14FF00000014970470000FF07E6
:102530000000F87F0EF1020E2EF0030E5EF8046B21
:10254000364205D4012A43EB030515F5001F12D8C6
:10255000012841EB010C1CF5001F0CD80ED14FEAED
:10256000D17C15F5001F0CEB4C0C0CF1020C08BFD4
:102570004CEBD37C04E04FF0080C01E04FEAD37C35
:102580000CEB4C0526FA05F606F00706B6F1040C2E
:1025900006D20EEB860CBDE870404CF0010C604793
:1025A000DFE80CF0090B02024FF000414FF0000091
:1025B000A1F5002170BD19461046012851EB010418
:1025C00018BFD4F5001484BF002001F0004170BD95
:1025D0000808A0F500114FEA3101704753EA010CD9
:1025E00017D41CF5801F58BFBCF5801F00F1068072
:1025F0008B4218BF704708BF8242704707D713F558
:10260000801F58BF11F5801F19D48B4270479B4221
:1026100070471CF5801F08D5BCF5801FF7D599427F
:1026200018BF704708BF904270474FF4001C1CEB66
:10263000430F38BF1CEB410F01D2994270470FB4D2
:102640000CBC03BCFFF7C1BE91EA030F10B581F0CB
:1026500000413FF565AC83F0004300F0D5B80000C1
:102660002DE9F04101F5801CBCF5001FC0F2A980E6
:102670004FEA115C21EA0C510CF1FD0C41F4801180
:102680005FEA5C0C0CF5C07C01D34000494130A4EA
:10269000890241EA905187028E0E0A0CA45D04FB68
:1026A00004F602FB06F6C6F14046A4FB0662F60DF0
:1026B00046EA422606FB06F4A4FB01235242C3F17C
:1026C000404338BF5B1EA6FB02420024E6FB032406
:1026D000D20B42EA4446A6FB0623A1FB02E2A3FB7F
:1026E00007E4E3FB61426442C2F1404E38BFAEF101
:1026F000010EA6FB04234FF00002E6FB0E32A2FB04
:1027000003463400E2FB6264A1FB06E6A4FB07E893
:10271000E4FB61687642C8F1405838BFA8F101086F
:10272000A2FB06E4A3FB08E5E2FB6854A1FB05E677
:10273000A7FB04E8E1FB648618F1200556F10006CA
:10274000A809A8F11B08B10908F03F08B8F10A0F61
:1027500040EA86601CD901EB0C51BDE8F08100BF56
:10276000FCF5EEE8E2DDD8D3CFCBC7C3C0BDB9B628
:10277000B4B1AEACA9A7A5A3A19F9D9B9A9896952D
:102780009392908F8D8C8B898887868584838281B4
:10279000A0FB006800FB01F208EB4208B8EB8728B9
:1027A00007D5341858EB0104D5D5401C51F1000170
:1027B000D1E7341A78EB0104CDD4401E71F1000149
:1027C000C9E75FEA4C0C5FEA9C5C0DD105D34FF082
:1027D000000001F00041BDE8F081BDE8F04170B5B6
:1027E000FFF7A8FE6DDBFFBEBDE8F0414FF0000033
:1027F000004970470000F87F10B591EA030F48BF09
:1028000083F000433FF58CAB841A71EB030C07D2C5
:1028100012198CF0004C43EB0C03001B61EB0C0114
:10282000DFF8A4E14FEA1154A4EB135C1EEA430F56
:1028300018BF9EEA445F00F0B08023EA6E03524264
:1028400021EA0451C3EB6E0338BF5B1EDCF1200E9E
:1028500025D322FA0CFE10EB0E0043FA0CFE41EBDE
:102860000E01CCF1200E03FA0EFE10EB0E0051F11A
:102870000001CCF1200E29D412FA0EF201EB045122
:10288000BDE8104058BF7047401C1CBFB2F1004F5C
:10289000704700280CBF491C20F00100704712EB64
:1028A000020E43EB030218BF4FF0010E4EEA420244
:1028B000ACF1200CDCF11E0E54D943FA0CFE10EBE7
:1028C0000E0051F1FF31CCF11E0ED5D50EF1010EE7
:1028D00012FA0EFE404141EB010101EB445C5FEA5C
:1028E0005C5C10D910EBDE7001EB045138BFBEF117
:1028F000004FBDE8104018BF704700280CBF491CAE
:1029000020F00100704730D24FEAD42C11F50011AD
:1029100024F400641BD0B1FA81F20B3AA41AA41E6D
:10292000D2F12003914030FA03F31943904001EBB8
:10293000CC71002C01EB0451BDE81040A8BF7047DA
:1029400001F1C0414FF0000001F000417047B0FAC2
:1029500080F310FA03F100D110BDE41A173C4805CA
:10296000C90AE4E701EB045110BD491001EB045121
:10297000BDE810404FEA300002E04FF00001704720
:102980004A0008BF0042F8D0B2F5001F28BF7047C8
:1029900001F000414FF0000070479EEA445F07D00D
:1029A00011EA5E0FBDE8104004BF0021002070470F
:1029B000BDE8104070B5FFF7BDFD00BF40DFF63E3B
:1029C00083F00041104670470000E0FF43004FEAEB
:1029D000D30C4FEA3C0C43401FBF40070CF1605141
:1029E00013F0FE4F70471CF0006F03D100200CF075
:1029F000004170470CF0004343EA507010B540EAC4
:102A0000CC0000F00EF800BF000000924FEA000179
:102A1000FFF7DEBD4FF000414FF00000A1F50021AF
:102A200070470EF1020E2EF0030E5EF8044B2442A6
:102A300004D44FEA4102B2F17F4F11D84FEA40036C
:102A4000B3F17F4F0CD80ED14FEAD07CB2F17F4F5B
:102A50000CEB4C0C0CF1020C08BF4CEBD17C04E0ED
:102A60004FF0080C01E04FEAD17C0CEB4C0324FA48
:102A700003F404F00704B4F1040C06D20EEB840C4A
:102A8000BDE810404CF0010C6047DFE80CF007088F
:102A900002024FF00040A0F5800010BD0846420041
:102AA00018BFD2F1807288BF00F0004010BD4FF017
:102AB0004070E1EE100A7047FF2141EAD050C00596
:102AC00070470CF00F03092B08BF082000F0598055
:102AD0000A2B0BD0082B18BF704708BF1CF0400F03
:102AE0000AD04FF000004FF0000170471CF0400F7B
:102AF00018BF4FF0004070471CF0100F08D020F0B6
:102B0000704300F07F4242EAD3014FEA43707047BE
:102B100000F0604021F07F4242EA000201F07F4075
:102B200040EA727070474FF0FF0C4CF4E06C1CEA06
:102B300011531CBF9CEA030C9445C2BFDA4201EB5F
:102B400002517047002B0DD0BCF1000F0FD0002AAE
:102B500001F00041A4BF41F0E04141F07F614FF03E
:102B60000000704701F000414FF00000704750EA4C
:102B700001334FF09B0C18BF4CF0806C7FF470AAAF
:102B800070471CF4801F11D01CF4E02F03D06FEAB3
:102B9000CC31490070474FF04050EFF3008222F0F3
:102BA000704242EA000282F3008870474FF0000052
:102BB0007047000000000000000001020304060747
:102BC00008090000000001020304000000000000EA
:102BD000000000000000F03F000000000000F83F8F
:102BE00000000000000000000000004003B8E23FC9
:102BF000000000000000000006D0CF43EBFD4C3E7B
:102C0000033333333333E33FFFAB6FDBB66DDB3F6F
:102C10004D268F515555D53F01411DA96074D13FB7
:102C200065DBC9934A86CD3FEF4E454A287ECA3FB1
:102C30003E5555555555C53F93BDBE166CC166BF33
:102C40002CDE25AF6A56113FF16BD2C541BDBBBE2C
:102C5000D0A4BE726937663E00000000000000008C
:102C6000802C00080000002024050000C40100089A
:102C7000282D000824050020640600002802000812
:102C800002150001102DD9AB173F1504C2BD15EF79
:102C9000433E0000803F09B8D53EF304B53E72AD17
:102CA000A03FD7B35D3F5E83EC3EB2E4A83F8D65A5
:102CB000973F2F3108211021182120212821302170
:102CC000382140214821502158115F12806012BFE5
:102CD00060123D1812BE0F12BF6012BE6012BE38E5
:102CE00012BF4012BF4812BE6012BF5812BF8F31D0
:102CF00008211021182120212821302138214021AC
:102D000048215021580161C002FF00C0051C800A03
:102D1000FF804005DC8001DBC029001210042A017D
:082D20000900040024F4000086
:04000005080002717C
:00000001FF
