:020000040800F2
:100000000016002071020008790200087B02000837
:100010007D0200087F020008810200080000000045
:100020000000000000000000000000008302000843
:10003000850200080000000087020008BB0C0008D1
:100040008B0200088B0200088B0200088B0200085C
:100050008B0200088B0200088B0200088B0200084C
:100060008B0200088B0200088B0200088B0200083C
:100070008B0200088B0200088B0200088B0200082C
:100080008B0200088B0200088B0200088B0200081C
:100090008B0200088B0200088B0200088B0200080C
:1000A0008B0200088B0200088B0200088B020008FC
:1000B0008B0200088B0200088B0200088B020008EC
:1000C0008B0200088B0200088B0200088B020008DC
:1000D0008B0200088B0200088B0200088B020008CC
:1000E0008B0200088B0200088B0200088B020008BC
:1000F0008B0200088B0200088B0200088B020008AC
:100100008B0200088B0200088B0200088B0200089B
:100110008B0200088B0200088B0200088B0200088B
:100120008B0200088B0200088B0200088B0200087B
:100130008B0200088B0200088B0200088B0200086B
:100140008B0200088B0200088B0200088B0200085B
:100150008B0200088B0200088B0200088B0200084B
:100160008B0200088B0200088B0200088B0200083B
:100170008B0200088B0200088B02000800000000C0
:100180008B0200088B02000800F002F800F060F813
:100190000AA090E8000C82448344AAF10107DA45E2
:1001A00001D100F055F8AFF2090EBAE80F0013F0D4
:1001B000010F18BFFB1A43F001031847140E00008B
:1001C000340E000010F8013B0A4413F0030408BF8A
:1001D00010F8014B1D1108BF10F8015B641E05D01B
:1001E00010F8016B641E01F8016BF9D1002D15D0D8
:1001F00010F8014B03F00C030C2BA1EB04040ABF15
:1002000010F8013BA4EB8314A4EB032405F10103D4
:1002100014F8016B5B1E01F8016BF9D5914238BFF0
:1002200010F8013BD1D3704700230024002500269D
:10023000103A28BF78C1FBD8520728BF30C148BF49
:100240000B6070471FB500F077FE1FBD10B510BDE5
:1002500000F0D4F81146FFF7F5FF00F015FE00F0AE
:10026000F2F803B4FFF7F2FF03BC00F0F5F800006A
:100270000948804709480047FEE7FEE7FEE7FEE73A
:10028000FEE7FEE7FEE7FEE7FEE7FEE70448054976
:10029000054A064B70470000810D000889010008DF
:1002A0000010002000160020001200200012002084
:1002B00053EA020C00F069802DE9F04B4FF0000684
:1002C000002B1FBFB3FA83F503FA05F424FA05F6F1
:1002D0005E4012BF1643B2FA82F502FA05F4C5F188
:1002E00020051EBF22FA05FC44EA0C04203556EA1C
:1002F000044C4FEA144418BF641C4FF000084FF040
:100300000009904271EB030C39D3002919BFB1FAEF
:1003100081F701FA07F6B0FA80F700FA07F6C7F19D
:1003200020071EBF20FA07FC46EA0C062037B6FB62
:10033000F4FCA7EB0507103F07F01F0BCBF12006DD
:100340000CFA0BFB2CFA06F644BFB3460026202F0E
:10035000A4BF5E464FF0000B5BEA060C08BF4FF0EF
:10036000010B19EB0B09ABFB027C48EB0608C01B29
:1003700006FB02CC0BFB03CC71EB0C01C1E70B4677
:10038000024641464846BDE8F08B13B54FF00000E9
:100390004FF00001AFF30080BDE81C4070474FF004
:1003A000000200B5134694469646203922BFA0E8C5
:1003B0000C50A0E80C50B1F12001BFF4F7AF0907D1
:1003C00028BFA0E80C5048BF0CC05DF804EB8900C2
:1003D00028BF40F8042B08BF704748BF20F8022B05
:1003E00011F0804F18BF00F8012B7047704770471D
:1003F00070470000004870479C0F00207546FFF7CB
:10040000F9FFAE4605006946534620F007008546D1
:1004100018B020B5FFF73AFFBDE820404FF00006C6
:100420004FF000074FF000084FF0000B21F00701DC
:10043000AC46ACE8C009ACE8C009ACE8C009ACE81F
:10044000C0098D46704710B50446AFF300802046C2
:10045000BDE81040FFF705BF01491820ABBEFEE71D
:1004600026000200704772B600BFFEE70148006830
:100470007047000010050020034800680349097810
:100480000844014908607047100500201805002045
:1004900010B50A48006840F4007008490860084632
:1004A000006840F480600860032000F06FF80F20BF
:1004B00000F006F800F02AF8002010BD003C0240D1
:1004C00070B504460E4800784FF47A71B1FBF0F035
:1004D0000C490968B1FBF0F5284600F0D0FB08B1E3
:1004E000012070BD102C07D200222146501E00F0C2
:1004F0000EF80548046001E00120F2E70020F0E773
:10050000180500201C0500201405002070472DE967
:10051000F05F80460D461646002700F03FFC074678
:1005200039462A46334601F00700C0F1070ABAF1FE
:10053000040F02D94FF0040A01E0C0F1070AD146C6
:1005400000F1040ABAF1070F02D24FF0000A01E0ED
:10055000A0F1030AD4464FF0010A0AFA09FAAAF1F7
:10056000010A0AEA020A0AFA0CFA4FF0010B0BFA26
:100570000CFBABF1010B0BEA030B4AEA0B0421461F
:10058000404600F013FCBDE8F09F000000BF00F003
:100590000702064B19684FF6FF031940044B0B4343
:1005A00043EA0221014B196000BF70470CED00E0E7
:1005B0000000FA0570B504460D460CB9012070BD67
:1005C0005848006800F00F00A84209D255490D7044
:1005D0000846006800F00F00A84201D00120EEE7B5
:1005E000207800F0020002281DD1207800F00400DD
:1005F000042805D14C48006840F4E0504A4908609E
:10060000207800F00800082805D14748006840F429
:100610006040454908604448006820F0F000A16847
:10062000084341490860207800F00100A8B36068E1
:10063000012807D13C4808380068C0F34040B8B9E9
:100640000120BCE76068022802D06068032807D157
:10065000354808380068C0F3406048B90120AEE76B
:10066000314808380068C0F3400008B90120A6E707
:100670002D48006820F00300616808432A4908609B
:10068000FFF7F4FE064609E0FFF7F0FE801B41F29B
:100690008831884202D9032091E707E022480068A8
:1006A00000F00C006168B0EB810FEDD11D480068CF
:1006B00000F00F00A84209D91A490D7008460068D9
:1006C00000F00F00A84201D0012078E7207800F068
:1006D0000400042807D11448006820F4E050E168C1
:1006E000084311490860207800F00800082808D164
:1006F0000D48006820F46040216940EAC1000A49C1
:10070000086000F01FF808490968C1F30311074A9F
:10071000515CC8400649086006480068FFF7D0FEF3
:1007200000204CE7003C024008380240B80F0008A7
:100730001C050020140500200148006870470000D7
:100740001C0500202DE9F047002400250026A146C5
:100750002548006800F00C0020B1042805D00828C6
:100760003AD105E0DFF8849039E0DFF8849036E094
:100770001D48001F006800F03F041B48001F006870
:1007800000F4800078B11A481749091F0968C1F3BD
:100790008811A0FB01700146224600233846FFF76E
:1007A00087FD05460EE011480F49091F0968C1F38E
:1007B0008811A0FB01700146224600233846FFF74E
:1007C00077FD05460848001F0068C0F30140401C43
:1007D0004600B5FBF6F902E0DFF8109000BF00BF5D
:1007E0004846BDE8F0870000083802400024F400C5
:1007F00040787D01F8B504460CB90120F8BD207899
:1008000000F00100002874D0F948006800F00C00E6
:1008100004280DD0F648006800F00C00082813D119
:10082000F348001F006800F48000B0F5800F0BD182
:10083000EF4808380068C0F34040002859D060688D
:10084000002856D10120D9E700BF6068B0F5803F8D
:1008500008D1E7480838006840F48030E449083996
:1008600008601EE06068B0F5A02F0DD1E0480838A0
:10087000006840F48020DE490839086008460068B6
:1008800040F4803008600CE0D9480838006820F453
:100890008030D749083908600846006820F4802075
:1008A000086000BF606890B1FFF7E0FD054606E014
:1008B000FFF7DCFD401B642801D903209EE7CC48EC
:1008C00008380068C0F340400028F1D011E0FFF77D
:1008D000CDFD054606E0FFF7C9FD401B642801D9A0
:1008E00003208BE7C24808380068C0F34040002866
:1008F000F1D1207800F0020002285FD1BC480068E6
:1009000000F00C0058B1BA48006800F00C0008284C
:100910001CD1B748001F006800F48000B0B9B4488B
:1009200008380068C0F3400020B1E068012801D019
:10093000012063E7AE480838006820F0F80021691C
:1009400040EAC100AA490839086037E0E06800B30E
:100950000120A8490860FFF789FD054606E0FFF77A
:1009600085FD401B022801D9032047E7A04808382D
:100970000068C0F340000028F1D09D4808380068A6
:1009800020F0F800216940EAC1009949083908605F
:1009900014E0002097490860FFF768FD054606E06F
:1009A000FFF764FD401B022801D9032026E7904889
:1009B00008380068C0F340000028F1D1207800F02A
:1009C000080008282CD16069A8B101208A49086074
:1009D000FFF74CFD054606E0FFF748FD401B0228E7
:1009E00001D903200AE782486C300068C0F3400058
:1009F0000028F1D014E000207F490860FFF736FDA1
:100A0000054606E0FFF732FD401B022801D903200E
:100A1000F4E677486C300068C0F340000028F1D15C
:100A2000207800F00400042870D100277048383086
:100A3000006800F0805090B900BF002000906C4822
:100A40003830006840F08050694938310860084605
:100A5000006800F08050009000BF00BF0127674889
:100A6000006800F48070B0B96448006840F4807099
:100A700062490860FFF7FAFC054606E0FFF7F6FC5E
:100A8000401B022801D90320B8E65C48006800F446
:100A900080700028F2D000BFA068012808D1544817
:100AA0006830006840F001005149683108601DE07D
:100AB000A06805280DD14E486830006840F0040059
:100AC0004B49683108600846006840F00100086042
:100AD0000CE047486830006820F001004449683164
:100AE00008600846006820F00400086000BFA068A5
:100AF000A8B1FFF7BBFC054609E0FFF7B7FC401BB8
:100B000041F28831884202D9032077E626E038484E
:100B100068300068C0F340000028EED013E0FFF713
:100B2000A5FC054608E0FFF7A1FC401B41F2883117
:100B3000884201D9032061E62D4868300068C0F37F
:100B400040000028EFD1012F07D129483830006834
:100B500020F0805026493831086000BFA069002885
:100B600045D02348006800F00C0008285DD0A0693B
:100B7000022845D100201F490866FFF777FC05468B
:100B800006E0FFF773FC401B022801D9032035E67D
:100B9000174808380068C0F340600028F1D1D4E954
:100BA00007010843616A40EA81110122A06AC2EB91
:100BB000500041EA00412C20005D41EA00600C49F0
:100BC000091F086001200B490866FFF74FFC054626
:100BD00006E0FFF74BFC401B022801D903200DE67D
:100BE000034808380068C0F340600028F1D03FE0B7
:100BF0000838024000004742800E47420070004023
:100C000000201C490866FFF731FC054606E0FFF7A7
:100C10002DFC401B022801D90320EFE5164800688F
:100C2000C0F340600028F2D122E0A069012800D181
:100C3000E4E51148001D066806F48001E069814280
:100C400014D106F03F01206A81420FD147F6C070EF
:100C50003040616A884209D106F44031A06A81427D
:100C600004D106F07061E06A814201D00120C5E53F
:100C70000020C3E50000474200380240704770B5CD
:100C800004462546681EB0F1807F01D301200FE0A5
:100C9000681E4FF0E02148610F214FF0FF3000F057
:100CA00085F800204FF0E0218861072008610020CE
:100CB00070BD10B5FFF7E2FF10BD10B5FFF7DCFB0C
:100CC000FFF7F7FF10BD000000B593B0302107A873
:100CD000FFF765FB142102A8FFF761FB00BF0020AE
:100CE00001902548006840F080502349086008467C
:100CF000006800F08050019000BF00BF00BF0020DE
:100D000001901E48006840F480401C490860084675
:100D1000006800F48040019000BF00BF02200790EF
:100D200001200A9010200B9002200D9000210E91BE
:100D300008210F91A82110910221119104211291F3
:100D400007A8FFF757FD08B1FFF78DFB0F200290B2
:100D500002200390002004904FF4A05005904FF41F
:100D600080500690052102A8FFF724FC08B1FFF788
:100D70007AFB13B000BD0000403802400070004014
:100D80000548006840F47000034908604FF00060B7
:100D9000014980390860704788ED00E0024800682A
:100DA000C0F30220704700000CED00E010B50028F1
:100DB00004DB0A07130E054A135406E00A07140E53
:100DC000034A00F00F031B1FD45410BD00E400E0E1
:100DD00018ED00E02DE9F84F0C4615461F46416816
:100DE000D0F808B0CDF800B00388A3F1010ED0F818
:100DF00004B00BEB8E02BA4620E0F4EC010AE2EC00
:100E0000010ADFED160AB0EE600A8C46DDF80080BC
:100E100099460BE0BCEC011AF8EC011AF0EE400A1E
:100E200041EE210AB0EE600AA9F10109B9F1000F03
:100E3000F0D1A5EC010A091DAAF1010ABAF1000FCF
:100E4000DBD142685E1E04E0F1EC010AE2EC010A2B
:100E5000761E002EF8D1BDE8F88F000000000000DB
:100E60002DE9F04104460D4617461E46DDF8188070
:100E70002580A760A8F10100284481003046FFF7D3
:100E80008EFA6660BDE8F0811FB5FFF701FBFFF742
:100E90001BFF20200E4B0F4A1D21009001A8FFF7D9
:100EA000DFFF00240AE00C4B03EBC4120B4B03EBF7
:100EB000C411202301A8FFF78DFF641C08480068B7
:100EC0008442F0D3FFF738FC0649086000F00CF8C4
:100ED00020050020440F00089C0A0020100000207C
:100EE00000000020040000201CE0002017E00E4A53
:100EF00002EB800292ED000A0C4A82ED000A0C4AD5
:100F000002EB800292ED000A0A4A82ED000A0021FB
:100F100000E0491C42F210729142FADB401CB0F52D
:100F2000A07FE4DBE1E700001000002008000020C3
:100F30009C0A00200C0000204FF04070E1EE100AE7
:100F400070470000B9E1EEBA1222D0BA00000000EA
:100F5000F755723BCF4E043C58C20B3C000000805A
:100F60009E858EBC88DC0BBD9CA308BD00000000E4
:100F70000A828A3DF0DB1B3E5F46643E0641803EAE
:100F80005F46643EF0DB1B3E0A828A3D00000000A3
:100F90009CA308BD88DC0BBD9E858EBC0000008034
:100FA00058C20B3CCF4E043CF755723B000000008A
:100FB0001222D0BAB9E1EEBA000000000000000031
:100FC00001020304060708090000000001020304EF
:100FD000F00F00080000002020050000C4010008F8
:100FE0009C10000820050020E010000028020008E6
:100FF00003100A0001102DD9AB173F1504C2BD150F
:10100000EF433E0000803F09B8D53EF304B53E7281
:10101000ADA03FD7B35D3F5E83EC3EB2E4A83F8D09
:1010200065973F2F310821102118212021282130D8
:1010300021382140214821502158115F128060122F
:10104000BF60123D1812BE0F12BF6012BE6012BE0A
:101050003812BF4012BF4812BE6012BF5812BF8F75
:101060003108211021182120212821302138214048
:101070002148215021580161C002FF00C0051C8099
:101080000AFF804005DC8001DBC029001210042A21
:0C109000010900040024F400000000002E
:04000005080002717C
:00000001FF
