:020000040800F2
:10000000C8100020C9030008D1030008D30300086A
:10001000D5030008D7030008D9030008000000003A
:10002000000000000000000000000000990200082D
:10003000DD0300080000000051030008B5030008BC
:10004000E3030008E3030008E3030008E3030008F8
:10005000E3030008E3030008E3030008E3030008E8
:10006000E3030008E3030008E3030008E3030008D8
:10007000E3030008E3030008E3030008E3030008C8
:10008000E3030008E3030008E3030008E3030008B8
:10009000E3030008E3030008E3030008E3030008A8
:1000A000E3030008E3030008E3030008E303000898
:1000B000E3030008E3030008E3030008E303000888
:1000C000E3030008E3030008E3030008E303000878
:1000D000E3030008E3030008E3030008E303000868
:1000E000E3030008E3030008E3030008E303000858
:1000F000E3030008E3030008E3030008E303000848
:10010000E3030008E3030008E3030008E303000837
:10011000E3030008E3030008E3030008E303000827
:10012000E3030008E3030008E3030008E303000817
:10013000E3030008E3030008E3030008E303000807
:10014000E3030008E3030008E3030008E3030008F7
:10015000E3030008E3030008E3030008E3030008E7
:10016000E3030008E3030008E3030008E3030008D7
:10017000E3030008E3030008E303000800000000B5
:10018000E3030008E303000800F002F800F03CF885
:100190000AA090E8000C82448344AAF10107DA45E2
:1001A00001D100F031F8AFF2090EBAE80F0013F0F8
:1001B000010F18BFFB1A43F001031847AC2F0000D2
:1001C000CC2F0000103A24BF78C878C1FAD8520763
:1001D00024BF30C830C144BF04680C6070470000C1
:1001E0000023002400250026103A28BF78C1FBD840
:1001F000520728BF30C148BF0B6070471FB502F0DF
:1002000049FB1FBD10B510BD00F0C6F91146FFF740
:10021000F5FF0FB400F0C0FD0FBC00F0A5FF00F02B
:10022000E0F903B4FFF7EEFF03BC00F0E3F90000D0
:1002300080F309887047EFF309807047684680F3C0
:10024000098804480078C00714BF0220032080F307
:1002500014887047D5280008DFF818C0EFF305832D
:100260001B0618BF6047EFF31483DB0708BF604726
:1002700000DF704743170008DFF818C0EFF305836D
:100280001B0618BF6047EFF31483DB0708BF604706
:1002900000DF7047C1190008EFF30980816911F888
:1002A000021CE1BB90E80F1010B5E047BDE810401C
:1002B000EFF3098C8CE80700214B93E8060091428C
:1002C00008BF704741B91EF0100F16D11D490868CC
:1002D00020F00100086010E01EF0100F06BF2CEDAA
:1002E000108A0120002081F825002CE9F00FC1F8C8
:1002F00028C00CB401F00EFF0CBC1A60D2F828C064
:10030000BCE8F00F92F8250000280EBF6FF0020E37
:100310006FF0120EBCEC108A8CF30988704710B590
:10032000094A1268914209D8084C54F8214090E8D3
:100330000F10A047EFF3098C8CE80F0010BD0000F0
:100340000C00002034EF00E0F8130008F813000858
:1003500010B501F0A3FDBDE81040154B93E8060071
:10036000914208BF7047EFF3098C1EF0100F06BFD3
:100370002CED108A0120002081F825002CE9F00FD7
:10038000C1F828C00CB401F0C5FE0CBC1A60D2F84C
:1003900028C0BCE8F00F92F8250000280EBF6FF0CF
:1003A000020E6FF0120EBCEC108A8CF309887047B5
:1003B0000C00002010B501F075FFCCE710B501F07E
:1003C000BFF901F06FFFC6E70948804709480047B9
:1003D000FEE7FEE7FEE7FEE7FEE7FEE7FEE7FEE7F5
:1003E000FEE7FEE704480549054A064B7047000052
:1003F000D10C000889010008C80A0020C81000209C
:10040000C80C0020C80C002000487047E400002001
:1004100053EA020C00F069802DE9F04B4FF0000622
:10042000002B1FBFB3FA83F503FA05F424FA05F68F
:100430005E4012BF1643B2FA82F502FA05F4C5F126
:1004400020051EBF22FA05FC44EA0C04203556EABA
:10045000044C4FEA144418BF641C4FF000084FF0DE
:100460000009904271EB030C39D3002919BFB1FA8E
:1004700081F701FA07F6B0FA80F700FA07F6C7F13C
:1004800020071EBF20FA07FC46EA0C062037B6FB01
:10049000F4FCA7EB0507103F07F01F0BCBF120067C
:1004A0002CFA06F60CFA0BFB44BFB3460026202FAD
:1004B000A4BF5E464FF0000B5BEA060C08BF4FF08E
:1004C000010B19EB0B0948EB0608ABFB027C06FBA2
:1004D00002CC0BFB03CCC01B71EB0C01C1E70B463C
:1004E000024641464846BDE8F08B13B5084318BFA5
:1004F0004FF0FF300146AFF30080BDE81C4070476D
:100500004FF000020429C0F0128010F0030C00F03C
:100510001B80CCF1040CBCF1020F18BF00F8012BBA
:10052000A8BF20F8022BA1EB0C0100F00DB85FEA88
:10053000C17C24BF00F8012B00F8012B48BF00F854
:10054000012B70474FF0000200B5134694469646C3
:10055000203922BFA0E80C50A0E80C50B1F12001D6
:10056000BFF4F7AF090728BFA0E80C5048BF0CC084
:100570005DF804EB890028BF40F8042B08BF7047E2
:1005800048BF20F8022B11F0804F18BF00F8012B54
:1005900070477047704770477546FFF735FFAE46A6
:1005A00005006946534620F00700854618B020B57F
:1005B000FFF718FFBDE820404FF000064FF000079E
:1005C0004FF000084FF0000BAC46ACE8C009ACE8B7
:1005D000C009ACE8C009ACE8C00921F007018D46AC
:1005E000704710B50446AFF300802046BDE81040C8
:1005F000FFF717BE01491820ABBEFEE72600020038
:100600007047000072B600BFFEE7000040F6C02051
:10061000C2F200000068704780B543F60040C4F2A3
:100620000200016841F400710160016841F48061D9
:100630000160032000F042F80F2000F005F800F000
:100640002BF8002080BD0000B0B540F27402C2F269
:10065000000240F22C011278C2F200014FF47A73CA
:100660000968B3FBF2F20446B1FBF2F1084600F070
:10067000ADFA0F2C4FF001050CD858B94FF0FF30F0
:1006800021460022002500F009F840F27800C2F26D
:10069000000004602846B0BD7047000070B51446E5
:1006A0000D46064600F022FB2946224600F092FA4B
:1006B0000146304600F022FB70BD000080B500F01E
:1006C0002FFB80BD2DE9F041002800F08B8043F620
:1006D0000808C4F202080446D8F8F8030D4600F0F2
:1006E0000F00884207D288F8F853D8F8F80300F0D2
:1006F0000F00A84276D12068810717D5410705D59C
:10070000D8F8001041F4E051C8F80010010705D5F1
:10071000D8F8001041F46041C8F80010D8F8001073
:10072000A26821F0F0011143C8F80010C0073FD1C2
:10073000D8F8F80300F00F00A84207D988F8F8535A
:10074000D8F8F80300F00F00A8424BD12068410709
:1007500007D5D8F80010E26821F4E0511143C8F839
:100760000010000708D5D8F80000216920F4604087
:1007700040EAC100C8F8000000F05AF8D8F80010AC
:1007800042F6AE02C1F30311C0F60002515C40F222
:100790002C0220FA01F140F27800C2F20000006859
:1007A000C2F200021160FFF74FFF0020BDE8F081A8
:1007B0006068811E022907D258F8081C89015CBFB5
:1007C0000120BDE8F08110E0012807D158F8081C8D
:1007D00089035CBF0120BDE8F08106E058F8081CE1
:1007E000890702D40120BDE8F081D8F8001021F07B
:1007F00003010843C8F80000FFF708FF064641F26E
:10080000883700BFD8F80000616800F00C00B0EB3A
:10081000810F8DD0FFF7FAFE801BB842F2D903207A
:10082000BDE8F08140F22C00C2F200000068704781
:1008300010B543F60404C4F20204606800F00C0032
:1008400008280AD0042819BF42F20040C0F2F40080
:1008500047F64000C0F27D1010BD20682168236873
:10086000490247F64001C0F27D1100F03F02C3F398
:1008700088105CBF42F20041C0F2F401A1FB00010C
:100880000023FFF7C5FD21680222C1F3014102EBFD
:100890004101B0FBF1F010BD2DE9F04182B000281C
:1008A00000F098800446007843F60006C007C4F2C2
:1008B000020643D0B06800F00C00042805D130686F
:1008C00080033BD56068C8BB84E0B06800F00C00D2
:1008D000082802D170684002F1D46568B5F5A02FF0
:1008E0000AD0B5F5803F0BD0306820F480303060FE
:1008F000306820F4802006E0306840F480203060CA
:10090000306840F480303060FFF780FE002D0546EF
:1009100011D000BF3068800310D4FFF777FE401B72
:100920006428F7D918E100BFFFF770FE401B642868
:100930004FF003004BD830688003F5D4207880074F
:1009400019D5B06810F00C0F08D0B06800F00C009A
:10095000082840F08080706840027CD430688007AE
:1009600002D5E068012835D13068216920F0F8000F
:1009700040EAC1003060207800072FD4207840077B
:1009800043D4A56915B3B06800F00C00082840F006
:100990009580012D1ED07068E16900F480028A42C2
:1009A00018D1216A00F03F028A4213D147F6C07184
:1009B000626A014091420DD1A16A00F440328A423C
:1009C00008D1E16A00F07060884203D1002002B0D3
:1009D000BDE8F081012002B0BDE8F0816069002827
:1009E00040F20000C4F2472057D00121C0F8801E19
:1009F000FFF70CFE054600BF706F8007BED4FFF7FF
:100A000005FE401B0228F7D9A6E0306C10F0805894
:100A10000AD100200190306C40F080503064306C7E
:100A200000F080500190019847F20007C4F20007DF
:100A30003868C00524D4386840F480703860FFF707
:100A4000E5FD05463868C0051AD4FFF7DFFD401BF9
:100A50000228F7D980E0E068002851D00020C4F2D5
:100A6000472001210160FFF7D1FD0546306880076E
:100A70003FF57AAFFFF7CAFD401B0228F6D96BE0BD
:100A8000A568052D50D0012D52D0306F20F0010007
:100A90003067306F20F004004DE00021C0F8801E68
:100AA000FFF7B4FD054600BF706F80077FF566AFA6
:100AB000FFF7ACFD401B0228F6D94DE00027C4F239
:100AC000472700203866FFF7A1FD022D05460BD110
:100AD0003068800158D5FFF799FD401B02284FF080
:100AE0000300F5D973E700BF306880017FF56EAF72
:100AF000FFF78CFD401B02284FF00300F4D966E796
:100B00000020C4F2472000210160FFF77FFD054669
:100B1000306880077FF52FAFFFF778FD401B022874
:100B20004FF00300F4D952E7306F40F00400306713
:100B3000306F40F001003067FFF768FD002D05467B
:100B400041F2883714D000BF306F800713D4FFF70D
:100B50005DFD401BB842F7D9032002B0BDE8F0812B
:100B6000FFF754FD401BB8424FF003003FF62FAF94
:100B7000306F8007F4D4B8F1000F7FF402AF306C0F
:100B800020F080503064FCE604F11C052FCD0843B2
:100B90000021CFF6FF7140EA821001EBC3316FF301
:100BA0000F0140EA05600843706001203866FFF7D6
:100BB0002DFD0446306880013FF508AFFFF726FDA4
:100BC000001B02284FF00300F4D900E780B500F0C5
:100BD00017F880BD00F0070080F00703042B28BF42
:100BE00004234FF0FF3C03380CFA03F338BF002016
:100BF000994381400CFA00F022EA00000843704754
:100C0000B0B501380024B4EB106F1CBF0120B0BD9B
:100C10004EF21005CEF2000568604FF0FF300F2154
:100C200000F06CF80720AC6028602046B0BD0000E2
:100C300070B592B006AC20463021FFF783FC00254A
:100C400043F640000595CDE90355CDE901550095E2
:100C5000C4F202000168022641F080510160006880
:100C600000F080500090009847F200000095C4F218
:100C70000000016841F480410160006800F4804098
:100C8000009000980120099010200A9008200E90F2
:100C9000A820CDE90F060420119020460696CDE944
:100CA0000C65FFF7F9FD88B90F20CDE901064FF477
:100CB000A05004904FF48050059001A805210395A1
:100CC000FFF700FD002804BF12B070BDFFF79AFCCB
:100CD0004EF68850CEF20000016841F470010160C8
:100CE0004FF0006140F8801C704700004EF60C5039
:100CF000CEF200000068C0F3022070474EF6145395
:100D000000F00F02CEF2000309011A4400F1604323
:100D1000B0F1FF3FC8BF03F5644211707047000097
:100D20004EF60C51CEF200010A684FF6FF031A404E
:100D300060F30A2242F0806040F0FD700860704766
:100D400010B504460846114600F09CFCC4E90001B9
:100D500010BD000040F20501C2F20001097800292F
:100D600008BF7047006841F6256CC0F6000C4FF6CE
:100D7000FF7100DF7047000040F20501C2F2000180
:100D80000978002908BF7047006841F64D5CC0F63D
:100D9000000C00DF7047000000F014FC42F60C105D
:100DA000C0F60000002100F079FC00F01DFC00BF3F
:100DB000FEE70000B0B50546049829702873C90005
:100DC00018461C46AA60FFF79BFB6C60B0BD000094
:100DD0002DE9F04F88B090F90C704468D0F8089075
:100DE00090F900A003F00100C7F10F0B07F1110605
:100DF0004FEA530E0390101F07968DE805400AE056
:100E0000DDF808E009F10C09276063600834BAF1E5
:100E1000010A11466DD0D9F80080D9F80400D9F83C
:100E200008C027686368BEF1000F45D0CDE904A96A
:100E3000DDF800900439F246069400BF51F8042F03
:100E40005D4628FB02FBBAF1010A4FEAEB7EC0FBCC
:100E5000C7BECCFBC3BE2BFA05F4AB460EFA06F5B3
:100E600045EA040528FB12F405F30F05C2EA07471B
:100E70004FEAE476C5EA0343C0FBC746079FCCFBB5
:100E8000C34624FA0BF306FA07F743EA070303F312
:100E90000F03079EC5EA034749F8047F4FEA32472C
:100EA000C3EA0543CAD109F1040E019A069CDDE9A3
:100EB00004A9043101E000BF9646039D002D9FD098
:100EC0000D882EB228FB06F6F117C0FBC761CCFBDC
:100ED000C36126FA0BF0079E45EA074701FA06F6BA
:100EE0003043079E00F30F00C0EA0343AEF8000052
:100EF00086E708B0BDE8F08FB0B51C46CB070CD133
:100F0000054604982980084441002046AA60FFF75E
:100F1000F7FA002040B26C60B0BDFF2040B2B0BD17
:100F20002DE9F04F84B007880E46D0F8049039467A
:100F3000791E009702914946CDF80490CBB3D0F8C2
:100F400008B0DDE9019009EB400100984FEA500A32
:100F500009E000BF002404F30F0022F8020B013B5C
:100F600009F1020925D036F8024BBAF1000F21F839
:100F7000024BEFD00391314600240026002700BF2A
:100F80000BEB840039F924803BF924E009EB840C55
:100F9000BCF90250B0F90200CEFB88670134A245CB
:100FA000C0FB8567ECD1F00B0E46039940EA47443D
:100FB000D1E7029868B10098019940420239A9F13D
:100FC000020200BF32F8023F0130471C21F8023F05
:100FD000F8D104B0BDE8F08F002A08BF70479FED3C
:100FE0000A0A031F881E00BF93ED011A043321EE85
:100FF000001ABDEEC11A11EE101A01F30F0120F80C
:10100000021F013AF0D17047000000479FED201AFF
:101010009FED202A20EE010ABDEEC01A11EE100A43
:10102000B5EE400AF1EE10FAB8BF013801EE100A31
:10103000B8EEC11A30EE410A20EE020ABDEEC01A27
:101040009FED152A11EE100A002130EE021AB1EBC5
:10105000502F42F664111CBF0020B0EE410AC0F6CA
:10106000000101EE100A01EB8001B8EE411A30EEEA
:10107000410A91ED001A91ED012AB7EE003A33EEE4
:10108000403A23EE011A20EE020A31EE000A7047C0
:1010900083F9223E00000044000000C484B040F206
:1010A000700540F2E87640F6B42740F244140DF1A2
:1010B0000408C2F20005C2F20006C2F20007C2F242
:1010C000000400BF404601210022FFF739FE2868D6
:1010D00000F06CFA3088398808442080F2E700007C
:1010E00084B040F2700640F2441540F24C1701AC57
:1010F000C2F20006C2F20005C2F20007204601213A
:101100000022FFF71DFE306800F050FA284600F07C
:1011100003F83880F2E7000080B582B0014640F263
:101120005810C2F200000DF106020123FFF7F8FE8D
:10113000BDF9060002B080BD80B582B040F2581003
:1011400040F2300240F264134FF0010CC2F2000092
:10115000C2F20002C2F200032021CDF800C0FFF766
:10116000CBFE02B080BD000080B5FFF755FAFFF757
:101170005FFDFFF757FB40F25411C2F20001086017
:1011800040F69020C2F200000A214FF47A7200F07B
:10119000A5F840F2F070C2F2000032214FF47A72EA
:1011A00000F09CF8FFF7C8FF42F63C10C0F60000C4
:1011B000002100F073FA40F6B821C2F20001086085
:1011C00042F61C10C0F60000002100F067FA40F261
:1011D000EC71C2F20001086042F6EC00C0F60000BB
:1011E000002100F05BFA40F24811C2F200010860F1
:1011F00042F6FC00C0F60000002100F04FFA40F279
:101200005011C2F20001086042F64C10C0F6000016
:10121000002100F043FA40F6BC220146C2F200026F
:101220000020116080BD000084B040F2700640F2E2
:10123000F0754AF6AB2740F2E8740DF10408C2F2EB
:101240000006C2F20005C2F6AA27C2F2000400BFDF
:10125000404601210022FFF773FD306800F0A6F937
:10126000284600F02BF850FB07F000EBD0702080F0
:10127000EEE70000FEE70000FEE7000084B040F269
:10128000700640F6902540F6B42701ACC2F2000685
:10129000C2F20005C2F20007204601210022FFF73A
:1012A0004FFD306800F082F9284600F007F881B25F
:1012B00000EBD13000B240083880EDE780B582B055
:1012C0000021ADF806100DF1060101AA0123FFF778
:1012D0007FFDBDF9040002B080BD0000F0B581B013
:1012E0002DED048B88B000EE101A9FED341AB8EE85
:1012F000C08A28EE010A01EE102AB8EEC19A80EEEB
:10130000090A044600200490FFF780FE9FED2C1A86
:1013100004A828EE011A81EE091A8DED050A051DB3
:10132000B0EE410AFFF772FE9FED261A8DED060A18
:1013300028EE011A81EE091AB0EE410AFFF766FEA7
:101340009DED051A9DED062A20EE014A82EE013A36
:1013500022EE022A34EE422A21EE011A82EE011A0E
:101360008DED070AB6EE000A04F1180103A8012268
:1013700004F11006012723EE002A8DED032A21EE49
:10138000000A8DED020AFFF727FE04F11A0102A8F8
:101390000122FFF721FE04F11C0320460121324601
:1013A0000097FFF707FD04F1220128460122FFF70D
:1013B00013FE08B0BDEC048B01B0F0BDDB0FC940DB
:1013C000DB0F4941E4CB964184B040F2700540F612
:1013D000B826C2F2000501ACC2F20006286800F08F
:1013E000E5F8204601214FF0FF32FFF7A9FC3068F5
:1013F000012100F03BF9F1E70000000010B5002AE0
:1014000006DA22F00042D21D22F00703102203E088
:10141000D21C22F003030C2213B19C188C4201D978
:10142000012010BD024401448360C0E90021C91AB3
:10143000D018884202D810600246F9E700201060F8
:1014400010BD000008480068C0010BD507480068BF
:10145000C00707D0054880380068002802DA044930
:101460000120087070470000FCED00E0800E00E0F5
:10147000280000204FF06042D36F002BFCD0036B9C
:10148000D367D36F002BFCD0C07840EA0120A2F8CC
:101490007C0070474FF06041CA6F002AFCD081F891
:1014A0007C0070470EB5802200B109B110460AE0F9
:1014B00001780129FAD101A900F046F8042801D0E9
:1014C000002000E01020DDE9011203B000BD70B57E
:1014D0000D46040003D012B92078012801D08020E5
:1014E00070BD204600F02CFB28B12946204600F0B4
:1014F00056F8002070BD812070BD70B50C4600F01C
:10150000F1FE4FF0004108B1220C01D0084670BD39
:10151000058BC178A0B200F003F8284670BD00002A
:101520000A460146074810B500EB820050F8040C4B
:10153000002805D000F000FDBDE8104000F0ECBC34
:1015400010BD00001C08002010B50446808900284A
:1015500024D0608904EB800000690860606840B1B5
:101560006078022805D10021204600F0E5FC00F05B
:10157000D3FC04F10C0000BFD0E85F1F491E8AB203
:10158000C0E8512F0029F7D16089401C80B26081EA
:10159000E189884201D100206081042010BD10B58E
:1015A00000F0CAFCBDE8104000F0B6BCEFF30581C6
:1015B00009B182207047DFF808C000DF70470000E3
:1015C000BD250008EFF3058008B182207047EFF3D6
:1015D0001480C00703D0DFF80CC000DF704700F0B4
:1015E000F7BF0000D125000888B0EFF3058010B1E7
:1015F000822008B07047EFF3148010F00301134805
:1016000006D001291BD0022911D0032919D113E0DA
:1016100008A981F309880078C0070BD05FF00200A9
:1016200080F31488BFF34F8FBFF36F8F09E000780A
:10163000C00706D10320F3E70078C00701D0FF20E0
:10164000D7E7DFF80CC000DFD3E70000D52800089B
:1016500041260008EFF305820AB1FFF723BFDFF848
:1016600008C000DF70470000AD260008EFF30582D8
:101670000AB1FFF742BFDFF808C000DF7047000083
:10168000E7260008EFF305830BB182207047DFF8EF
:1016900008C000DF704700000D270008EFF3058247
:1016A0000AB100207047EFF31482D20702D1044A36
:1016B00052781AB1DFF80CC000DF704701F050B863
:1016C0000400002061270008DFF80CC000DFDFF80D
:1016D0000CC000DFFEE70000CD270008E927000866
:1016E000DFF804C000DF704721280008094C4FF0E4
:1016F000FF3529462068FFF7ADFF02460846102A4D
:10170000F7D1FFF7EDFF0028F3D0024608469047D7
:10171000EFE7000014080020074801684FF0E020C0
:10172000416100218161072101610448016841F0A4
:101730007F410160401770476029000820ED00E0FC
:10174000704750E8001F31B10B6840E80032002AB2
:10175000F7D108467047BFF32F8FFAE710B568B18D
:1017600061B10B3121F00302016844680B1A1B1BA5
:10177000934205D2084609680029F5D1002010BD22
:10178000210007D021180368C1E90032016001F18E
:10179000080010BD4260083010BD000070B50D4655
:1017A000002812D04FF6FF71084C884204D22268FC
:1017B0000146104600F0EEFB20684570044800F03A
:1017C00029F9BDE8704000F0B7BC70BD0C000020E6
:1017D000B40000200F4810B50D4942680E480B6850
:1017E0000068934204D00A60CB88421E1A448A8063
:1017F0008A8880B282420AD100200860054800F041
:1018000009F90146BDE81040024800F0E7BB10BDF1
:1018100020000020B40000201C00002070B5194DED
:10182000E86800282CD0A88A401EA882002621E063
:10183000A06838B161684160606810B1A1688160DA
:101840006660A6600F482146183800F0C7FBA08AE2
:10185000A8826078042804D10B49E08A09880844EA
:10186000A08201206070E068E860E06808B105616E
:10187000E6602661A88A002802D1EC68002CD7D146
:1018800070BD0000CC0000201C00002070B50400DA
:101890000FD00D4DA17801262868827891420CD98D
:1018A00000F0B8FB286846702046BDE8704000F0A4
:1018B00043BC064800F0AEF8F7E766702146BDE885
:1018C0007040024800F08ABB0C000020B4000020E9
:1018D0000321FFF763BF000010B50446008B0843E7
:1018E00020836278618B062A18D0052A19D1084214
:1018F00017D001EA0002628388432083204600F06B
:10190000C3FB01206070628B0821204600F0B4FB0D
:101910002146BDE81040034800F060BB31EA0002F8
:10192000EAD010BDB40000200246154810B500EB07
:10193000810050F8044C002C21D0208B10432083D0
:101940006278618B062A17D0052A18D1084216D072
:1019500001EA0002628388432083204600F094FB62
:1019600001206070628B0821204600F085FB204634
:10197000BDE81040FFF78ABF31EA0002EBD010BD8E
:101980001C08002070B503460C480D460468208BE7
:1019900042B133EA000101D0062109E098432083D7
:1019A000022070BD10EA030101D06183F6E7052132
:1019B00063832846FFF7F2FE012070BD0C00002073
:1019C000814202D342688A4201D8012070470268EE
:1019D0000A60BFF35F8F50E8003F0A689A42F6D171
:1019E00040E80012002AF2D10020704768B161B1CE
:1019F0000022083902E00246006830B18842FAD17C
:101A00002AB1006810600020704701207047002153
:101A10004160F8E70146406842684A600B7800225E
:101A2000022B05D0012B03D0032B01D0426070475D
:101A300043680BB19960426082607047810700D0B3
:101A40000020704770B50446002015462070012222
:101A50006270A17084F824106060A060E060206172
:101A60002062A082E0822083608384F82500E08CDD
:101A700018B90548FFF765FEE06229462046BDE833
:101A8000704000F01DB80000B001002008B1082926
:101A900001D2012070470144091F002201600A6041
:101AA000426010467047000003480021016003496E
:101AB0000988C1807047000020000020E02800084D
:101AC00070B5C28C1C4D930802D12A88C2F38D03D5
:101AD000C26A02EB8302540700D5121F4FF08074D4
:101AE00042E9021400242646B2F1400242F8246082
:101AF000641C0E2CFAD3C4691462826201632968E3
:101B0000C90014D5112B12D94FF0FF31103B11EB46
:101B100053014FF0CC3305D042F8043C42F8083D65
:101B2000491EF9D1C16A121F8A4200D91360C06AE6
:101B30000249016070BD0000E8280008A52E5AE2A5
:101B4000C1898089081A7047012202700022427000
:101B50008270426002814281103982818908C1818C
:101B6000704700002DE9F041044640680E464FF0F2
:101B7000000804F10C05E8B36078012701283ED085
:101B8000022813D003285CD10846FFF7DAFD0500D0
:101B900057D02046FFF73EFF0446294600F066FA7C
:101BA0006770204600F070FA214621E02046FFF7DA
:101BB00031FF0646002100F059FA2189F06904EB53
:101BC00081010861D5E85F0F401C81B2C5E8501F54
:101BD0000028F7D12089401C80B22081E189884209
:101BE00001D1A4F808807770304600F04DFA3146F4
:101BF000174800E00CE0BDE8F04100F0EFB92046E6
:101C0000FFF708FF04463246102100F035FAC7E717
:101C1000A089E189884216D2208904EB8000066100
:101C2000D5E85F0F401C81B2C5E8501F0028F7D1EE
:101C30002089401C80B22081E189884201D1A4F82A
:101C40000880BDE8F081BDE8F0410320FFF712BB3A
:101C5000B400002070B50446808915460026C0B344
:101C6000608904EB8000006908606089401C80B2D4
:101C70006081E189884200D16681606810B1607836
:101C800002280BD014F10C04D4E85F0F401E81B27F
:101C9000C4E8501F0028F7D1002070BD2046FFF790
:101CA000B9FE0546002100F0E1F92189E86904EB5D
:101CB000810108612089401C80B22081E18988422D
:101CC00000D12681284600F0DFF92846FFF7DEFD27
:101CD000E2E7FFE73DB10B48626801682AB12046A0
:101CE00000F07CF908E0012070BD616001684E6081
:101CF000006884600120607008212846FFF74EFDCF
:101D0000F1E700000C000020002814D0411C13D083
:101D10000C4A4FF6FE7190420CD800EB4002C2EB29
:101D2000C0120948036803EBC202521EB2FBF3F073
:101D3000884204D9084670474FF6FF70704780B25A
:101D40007047000000093D00D02800082DE9F0414F
:101D50000446408820B1314DA1682A68914202D0E2
:101D6000FF20BDE8F081401E0004000C608053D1CC
:101D70002968086AA04209D1E068086208E0C268E0
:101D8000A24202D1E268C26002E010460028F6D109
:101D900091F824000A6A06E053681BB19B788342DD
:101DA00000D91846D268002AF6D18870DFF8708012
:101DB0006168012611B32046FFF72CFE074600217B
:101DC00000F054F9384600F05FF96680A760386A81
:101DD000E0603C622968D8F804008A788078824202
:101DE00001D3384616E00E4800F0F8F839460C48A2
:101DF00000F0F4F8286846707E700AE0D8F8041005
:101E00008A782968824207D9054800F0E7F82868EF
:101E100046700020FFF73AFD0020A2E70C000020EA
:101E2000B400002070B51C4D0E4604464188286859
:101E300061B1A268824210D1A1F57F40FF3803D082
:101E4000491C6180002070BDFF2070BDA060016A48
:101E5000E160046201206080F4E776B191788078D7
:101E6000814203D29070A06800F0DEF8606830B163
:101E70002046296800F0B2F808E0012070BD28680B
:101E80006060296800204860286884600921304625
:101E9000FFF784FCF1E700000C00002070B51B4840
:101EA000012102685170006800F0B4F8184D6C7898
:101EB00018E000BF05EBC40148680278EAB1012AC6
:101EC00020D000F00DF9E878641C844200D1002491
:101ED0000F48801CD0E84F1F491EC9B2C0E8421FFE
:101EE000002AF7D1A8780028E4D16C700948FFF7E0
:101EF00091FDBDE8704000F01FB9098989B2FFF774
:101F0000EBFCE0E78968FFF72DFEDCE70C00002022
:101F100038080020B40000200548017811B10121E3
:101F20004170704703494FF08050086070470000CF
:101F30001400002004ED00E0F0B4154DAB1CEE7869
:101F40004FEA0507D3E84F2FB24202D1BFF32F8FDC
:101F500011E0521CD4B2C3E8424F002AF2D100BFB4
:101F6000D7E84F2F541CB44200D10024E4B2C7E894
:101F7000434F002BF4D1EB78934205D905EBC20215
:101F8000C2E90101F0BC7047F0BC0220FFF772B952
:101F900038080020104A10B5D368ABB113469B8AAD
:101FA00003E08CB12246A48A2344D4688B42F8D340
:101FB000C460D0600261C46804B12061591A818292
:101FC000908A401A908210BD0024C460D060C91A63
:101FD00002619182848210BDCC00002030B502786D
:101FE0000023022A03D0012A01D0032A00D10123B1
:101FF0008C7800E01046426812B19578A542F9D27B
:102000004A6041601BB102B19160886030BD002020
:10201000FBE7000003494A68426000228260486092
:1020200070470000B400002010B5836804462BB947
:10203000607801280ED1084B03E09B6818780028CF
:10204000FBD0204600F034F82146BDE81040184689
:10205000FFF7C4BF10BD0000B400002090F82510A9
:10206000806A09B1603070472030704710B50C4667
:10207000FFF7F4FF046010BD70B515460C46FFF77E
:10208000EDFFC0E9004570BD10B5016900290ED013
:10209000C268CA60C36800223BB18B8A848A234429
:1020A0008B82C3681961C26000E08A82026110BD40
:1020B000816839B142684A604168002901D080686E
:1020C00088607047054906E04A68824202D140684C
:1020D0004860704711460029F6D17047B4000020CF
:1020E00010B5416881B1FFF795FC0446FFF7CCFFBE
:1020F0000120607001462046FFF7B8FF2146BDE889
:1021000010400348FFF76ABF4188491C418010BD59
:10211000B400002006480068D0E90A10814203D3C9
:1021200000680449884202D00120FFF7A3B8704735
:102130000C000020A52E5AE2074902224860427096
:10214000064A1278002A05D006C98A4202D0C07811
:10215000FFF7A0B9704700000C0000202800002005
:1021600070B5FFF76FF900200446204A204902E0CD
:1021700042F82040401C0B889842F9D31D48342275
:1021800001881D48FFF73AF91C48008880B240F0EA
:1021900000421B4801681B48FFF730F91A48082223
:1021A00001881A480068FFF729F9194DFF20194ADC
:1021B000E870EC8400212846FFF744FC164804210F
:1021C0000170446015480170C46004618482144841
:1021D000154905600220687012480470447009783F
:1021E000C170BDE87040FFF75FBC00001C08002014
:1021F000D6280008CC28000870060020E82800082F
:10220000C8280008B0010020CE280008A80100203E
:102210008000002079120008B4000020CC000020CB
:102220000C00002038080020D42800081B4810B5F6
:10223000016841F47F01016000684FF07F4101EACD
:1022400000201649C0431439B0FA80F00968C0F183
:102250000800C1F30221814200D3481C0F49091F25
:102260000B686FF08072824063F317020A60FFF719
:1022700053FA0B49002808600EDB00F1E021FF2231
:1022800081F8002400F01F020121914040098000E4
:1022900000F1E020C0F8001110BD000020ED00E0CA
:1022A000180000200C4810B5026801215170006828
:1022B000FFF7B0FEFFF78EFA08480168491C01607D
:1022C000FFF7ACFA00F0B8FA0548FFF7A3FBBDE84A
:1022D0001040FFF731BF00000C0000201C00002060
:1022E000B4000020002805D0810702D10178002920
:1022F00000D000207047000030B50B4C002362680E
:1023000005E095688D4204D813461268491B002ADF
:10231000F7D10260816012B19568691A91600BB1C2
:10232000186030BD606030BD040000202DE9F04130
:102330001E46174680460D4611F0FF0F00D14D1C7A
:102340001848FFF7FEF9041E16D0280AE762E08459
:10235000E9B242462046E661FFF774FB01251248C8
:10236000124905E000EB850252F8042C32B16D1CD5
:102370000A889542F6D90020BDE8F081002DFAD0F8
:1023800000EB850040F8044C0948E570007818B16E
:1023900001212046FFF76EF82046FFF777FA28461E
:1023A000EAE70000700600201C080020D62800087C
:1023B000280000202DE9F05F584DDFF85891DFF834
:1023C000588129684FF0010A002618B1CA78AB4637
:1023D000824243D14E70FDF72EFF29688862FFF7D5
:1023E00099FE2868046A1FE06068C0B12046FFF7C4
:1023F00011FB07460021FFF739FE3846FFF744FE80
:1024000087F801A039464648FFF7E8FDE168A4F8DF
:1024100002A0A760386AE0603C620C4604E0E06815
:102420006680A660E6600446002CDDD12868C2788C
:1024300008EB820141F8046CC16A3A48FFF7C0FA20
:102440002868C66299F8001011B10021FFF712F850
:1024500035482968FFF7B4FA2E6056E033490988F9
:1024600088420CD808EB800858F8045C3DB1284637
:10247000FFF71EFE2846FFF707FE2C6A22E0FF202A
:10248000BDE8F09F6068C0B12046FFF7C3FA074679
:102490000021FFF7EBFD3846FFF7F6FD87F801A0B6
:1024A00039461F48FFF79AFDE168A4F802A0A7602B
:1024B000386AE0603C620C4604E0E0686680A66032
:1024C000E6600446002CDDD148F8046C1548E96A42
:1024D000FFF776FAEE6299F8000018B1002128465D
:1024E000FEF7C8FF29461048FFF76AFA0C48DBF8E8
:1024F000001040688B7882789A4209D981F801A04F
:102500000748DBF80010FFF769FD0020FFF7BEF970
:102510000020B5E7280000201C0800200C00002047
:10252000B4000020B001002070060020D62800086A
:1025300070B51A4D80B11A4A128890421FD8194AB4
:1025400002EB800050F8044CCCB1A17084F8241048
:102550002868A04205D014E028688170286880F8B7
:102560002410114840688078884215D90E4829689F
:10257000FFF734FD29680120487000200AE0FF20A1
:1025800070BD2046FFF750FD6078012804D1064851
:10259000FFF740FAFFF77AF9002070BD0C00002029
:1025A000D62800081C080020B4000020024800685B
:1025B000002800D0C07870470C00002010B500281B
:1025C00004D0FFF7A1FBFFF783F9402010BD000006
:1025D00010B5134C207860B91248400705D1124855
:1025E00001681048FFF752FA08B1852010BDFFF7C7
:1025F000B7FD0E49FF2009688870207858B900217E
:102600000B4800F041F80B49086000210A4800F02F
:10261000A7F80A490860012020700020607010BDF2
:1026200004000020E0080020E42800080C0000203E
:10263000D8280008140800202C29000818080020B9
:1026400070B50F4D687808B1002070BD0D4C206842
:1026500090F824100020FFF76BFF2068C178FF2955
:1026600003D1816A203181F30988616811B9606002
:1026700000202060FFF7DAFD01206870E4E7000029
:10268000040000200C00002010B5040005D02168D3
:1026900019B1606808B102780AB1002010BD890044
:1026A000103189B2FFF750FA606810BD3EB50400E2
:1026B0000D464FF0800012D0217801290FD1284615
:1026C000FFF722FB0246204601A9FFF7C3FA0128C3
:1026D00001D0102003E00DB1402000E00020DDE932
:1026E000011203B030BD70B50C46FFF7FBFD4FF093
:1026F000004108B1220C01D0084670BD058BC1789D
:10270000A0B2FFF711F9284670BD000070B504466D
:102710000D46000C01D086201EE008462CB1FFF7C4
:10272000F3FA0146A0B2012205E0FFF7EDFA0146F7
:1027300000224FF6FF70FFF725F9022802D04DB1B5
:10274000402008E008200CB1214605E00349096853
:10275000498B01E000200021324670BD0C000020B2
:1027600070B50E46040029D0206838B3606810F1B7
:10277000030F23DB032821DCE16829B11048FEF7B1
:10278000EDFF05001AD000E000256068E168001D3B
:1027900040EA012133462A462068FFF7C7FD40B1D1
:1027A000084901EB8000084950F8040C826A516323
:1027B00070BD1DB129460248FFF718F9002070BD11
:1027C000E00800201C080020C916000810B5FFF71B
:1027D000EDFE002804D0034901EB800050F8040C02
:1027E00010BD00001C08002010B5FFF77BFD18B1DC
:1027F000C18C19B1C46A02E0802010BD0024C078E9
:10280000FFF7D8FDFF2806D01CB121460348FFF78B
:10281000EDF8002010BD812010BD0000E008002070
:1028200010B5FFF70BF920B141690A68016910463C
:1028300010BD0020014610BD2DE9F041134E746813
:10284000002C1CD0A068124F401E4FF00108A06061
:1028500012E0254624687460002229463868FEF795
:1028600036FE10B10420FEF705FD6879012808D076
:1028700085F80480002C02D0A0680028E9D0BDE8CB
:10288000F0812846E968FFF737FDF3E704000020F0
:1028900014080020F1EE100A4FF6FF71C0F2C031AB
:1028A00020EA010040F04070E1EE100A704700009D
:1028B00000000000000001020304060708090000F0
:1028C0000200010052000400C00400007801000072
:1028D000E80300001001070004000000BC0800200D
:1028E00005000100B0010000C80002019D100008B1
:1028F000000000000100000000000000E1100008DE
:102900000000000001000000000000006911000844
:102910000000000001000000C800000029120008AB
:10292000000000000100000000000000ED1600089B
:102930000200000001000000C80000007D12000835
:10294000000000000100000000000000C9130008A2
:102950000000000001000000000000000000000076
:10296000DF2E000000000000920E493CB10AC93C75
:102970002BC3163D2EFB483D752B7B3D04A9963D90
:1029800080B6AF3D36BDC83D2FBCE13D73B2FA3DC8
:1029900087CF093E8340163EB5AB223EA2102F3EA4
:1029A000CF6E3B3EC2C5473E0115543E135C603EB0
:1029B0007F9A6C3ECCCF783EC07D823E938E883E1F
:1029C000229A8E3E32A0943E86A09A3EE59AA03E80
:1029D000128FA63ED47CAC3EEF63B23E2A44B83E92
:1029E000491DBE3E15EFC33E53B9C93ECA7BCF3E1B
:1029F0004136D53E80E8DA3E4F92E03E7533E63E02
:102A0000BBCBEB3EEA5AF13ECBE0F63E275DFC3E07
:102A1000E4E7003F3D9C033F824B063F9BF5083FA8
:102A20006B9A0B3FDA390E3FCDD3103F2A68133F24
:102A3000D9F6153FC07F183FC6021B3FD17F1D3F0F
:102A4000CBF61F3F9967223F25D2243F5636273FBA
:102A50001594293F4AEB2B3FDE3B2E3FBB85303F91
:102A6000C9C8323FF304353F233A373F4268393F04
:102A70003B8F3B3FF9AE3D3F67C73F3F70D8413F7B
:102A800001E2433F03E4453F65DE473F12D1493F42
:102A9000F8BB4B3F029F4D3F207A4F3F3D4D513F8A
:102AA0004918533F31DB543FE595563F5348583F53
:102AB0006AF2593F1A945B3F532D5D3F05BE5E3F5E
:102AC0002146603F97C5613F5A3C633F59AA643F26
:102AD000880F663FD86B673F3CBF683FA7096A3FD6
:102AE0000C4B6B3F5E836C3F93B26D3F9ED86E3F45
:102AF00073F56F3F0809713F5213723F4714733FDC
:102B0000DD0B743F0BFA743FC6DE753F07BA763FA4
:102B1000C58B773FF853783F9812793F9DC7793F2F
:102B200002737A3FBE147B3FCDAC7B3F283B7C3F9A
:102B3000C9BF7C3FAC3A7D3FCCAB7D3F23137E3F8A
:102B4000B0707E3F6DC47E3F580E7F3F6D4E7F3F1D
:102B5000AB847F3F0FB17F3F97D37F3F43EC7F3FF5
:102B600011FB7F3F0000803F11FB7F3F43EC7F3F25
:102B700097D37F3F0FB17F3FAB847F3F6D4E7F3F49
:102B8000580E7F3F6DC47E3FB0707E3F23137E3F63
:102B9000CCAB7D3FAC3A7D3FC9BF7C3F283B7C3FFF
:102BA000CDAC7B3FBE147B3F02737A3F9DC7793F1C
:102BB0009812793FF853783FC58B773F07BA763F35
:102BC000C6DE753F0BFA743FDD0B743F4714733F4D
:102BD0005213723F0809713F73F56F3F9ED86E3FE5
:102BE00093B26D3F5E836C3F0C4B6B3FA7096A3F0E
:102BF0003CBF683FD86B673F880F663F59AA643F68
:102C00005A3C633F97C5613F2146603F05BE5E3F2A
:102C1000532D5D3F1A945B3F6AF2593F5348583F2A
:102C2000E595563F31DB543F4918533F3D4D513FE9
:102C3000207A4F3F029F4D3FF8BB4B3F12D1493F97
:102C400065DE473F03E4453F01E2433F70D8413F23
:102C500067C73F3FF9AE3D3F3B8F3B3F4268393F3F
:102C6000233A373FF304353FC9C8323FBB85303F75
:102C7000DE3B2E3F4AEB2B3F1594293F5636273F2C
:102C800025D2243F9967223FCBF61F3FD17F1D3FBE
:102C9000C6021B3FC07F183FD9F6153F2A68133F75
:102CA000CDD3103FDA390E3F6B9A0B3F9BF5083FAF
:102CB000824B063F3D9C033FE4E7003F275DFC3E1F
:102CC000CBE0F63EEA5AF13EBBCBEB3E7533E63E37
:102CD0004F92E03E80E8DA3E4136D53ECA7BCF3E99
:102CE00053B9C93E15EFC33E491DBE3E2A44B83E06
:102CF000EF63B23ED47CAC3E128FA63EE59AA03E76
:102D000086A09A3E32A0943E229A8E3E938E883EB2
:102D1000C07D823ECCCF783E7F9A6C3E135C603E95
:102D20000115543EC2C5473ECF6E3B3EA2102F3E1A
:102D3000B5AB223E8340163E87CF093E73B2FA3DC3
:102D40002FBCE13D36BDC83D80B6AF3D04A9963DE0
:102D5000752B7B3D2EFB483D2BC3163DB10AC93C6C
:102D6000920E493C00000000920E49BCB10AC9BC59
:102D70002BC316BD2EFB48BD752B7BBD04A996BD8C
:102D800080B6AFBD36BDC8BD2FBCE1BD73B2FABDC4
:102D900087CF09BE834016BEB5AB22BEA2102FBEA0
:102DA000CF6E3BBEC2C547BE011554BE135C60BEAC
:102DB0007F9A6CBECCCF78BEC07D82BE938E88BE1B
:102DC000229A8EBE32A094BE86A09ABEE59AA0BE7C
:102DD000128FA6BED47CACBEEF63B2BE2A44B8BE8E
:102DE000491DBEBE15EFC3BE53B9C9BECA7BCFBE17
:102DF0004136D5BE80E8DABE4F92E0BE7533E6BEFE
:102E0000BBCBEBBEEA5AF1BECBE0F6BE275DFCBE03
:102E1000E4E700BF3D9C03BF824B06BF9BF508BFA4
:102E20006B9A0BBFDA390EBFCDD310BF2A6813BF20
:102E3000D9F615BFC07F18BFC6021BBFD17F1DBF0B
:102E4000CBF61FBF996722BF25D224BF563627BFB6
:102E5000159429BF4AEB2BBFDE3B2EBFBB8530BF8D
:102E6000C9C832BFF30435BF233A37BF426839BF00
:102E70003B8F3BBFF9AE3DBF67C73FBF70D841BF77
:102E800001E243BF03E445BF65DE47BF12D149BF3E
:102E9000F8BB4BBF029F4DBF207A4FBF3D4D51BF86
:102EA000491853BF31DB54BFE59556BF534858BF4F
:102EB0006AF259BF1A945BBF532D5DBF05BE5EBF5A
:102EC000214660BF97C561BF5A3C63BF59AA64BF22
:102ED000880F66BFD86B67BF3CBF68BFA7096ABFD2
:102EE0000C4B6BBF5E836CBF93B26DBF9ED86EBF41
:102EF00073F56FBF080971BF521372BF471473BFD8
:102F0000DD0B74BF0BFA74BFC6DE75BF07BA76BFA0
:102F1000C58B77BFF85378BF981279BF9DC779BF2B
:102F200002737ABFBE147BBFCDAC7BBF283B7CBF96
:102F3000C9BF7CBFAC3A7DBFCCAB7DBF23137EBF86
:102F4000B0707EBF6DC47EBF580E7FBF6D4E7FBF19
:102F5000AB847FBF0FB17FBF97D37FBF43EC7FBFF1
:102F600011FB7FBF000080BF11FB7FBF43EC7FBF21
:102F700097D37FBF0FB17FBFAB847FBF6D4E7FBF45
:102F8000580E7FBF6DC47EBFB0707EBF23137EBF5F
:102F9000CCAB7DBFAC3A7DBFC9BF7CBF283B7CBFFB
:102FA000CDAC7BBFBE147BBF02737ABF9DC779BF18
:102FB000981279BFF85378BFC58B77BF07BA76BF31
:102FC000C6DE75BF0BFA74BFDD0B74BF471473BF49
:102FD000521372BF080971BF73F56FBF9ED86EBFE1
:102FE00093B26DBF5E836CBF0C4B6BBFA7096ABF0A
:102FF0003CBF68BFD86B67BF880F66BF59AA64BF64
:103000005A3C63BF97C561BF214660BF05BE5EBF26
:10301000532D5DBF1A945BBF6AF259BF534858BF26
:10302000E59556BF31DB54BF491853BF3D4D51BFE5
:10303000207A4FBF029F4DBFF8BB4BBF12D149BF93
:1030400065DE47BF03E445BF01E243BF70D841BF1F
:1030500067C73FBFF9AE3DBF3B8F3BBF426839BF3B
:10306000233A37BFF30435BFC9C832BFBB8530BF71
:10307000DE3B2EBF4AEB2BBF159429BF563627BF28
:1030800025D224BF996722BFCBF61FBFD17F1DBFBA
:10309000C6021BBFC07F18BFD9F615BF2A6813BF71
:1030A000CDD310BFDA390EBF6B9A0BBF9BF508BFAB
:1030B000824B06BF3D9C03BFE4E700BF275DFCBE1B
:1030C000CBE0F6BEEA5AF1BEBBCBEBBE7533E6BE33
:1030D0004F92E0BE80E8DABE4136D5BECA7BCFBE95
:1030E00053B9C9BE15EFC3BE491DBEBE2A44B8BE02
:1030F000EF63B2BED47CACBE128FA6BEE59AA0BE72
:1031000086A09ABE32A094BE229A8EBE938E88BEAE
:10311000C07D82BECCCF78BE7F9A6CBE135C60BE91
:10312000011554BEC2C547BECF6E3BBEA2102FBE16
:10313000B5AB22BE834016BE87CF09BE73B2FABDBF
:103140002FBCE1BD36BDC8BD80B6AFBD04A996BDDC
:10315000752B7BBD2EFB48BD2BC316BDB10AC9BC68
:10316000920E49BC00000080883100080000002059
:103170007C000000C4010008043200088000002028
:1031800048100000E00100080100000000000000FD
:10319000000000000000000000000000000000002F
:1031A000000000000000000000000000000000001F
:1031B000000000000024F4005CFB1C0219024E0217
:1031C000AC022503B0034504DC046E05F705750663
:1031D000DB062D0766078207820766072D07DB06D9
:1031E0007506F7056E05DC044504B0032503AC0243
:1031F0004E0219021C025CFB0A00000001000000E4
:0432000010000000BA
:04000005080003C923
:00000001FF
